:020000040000FA
:020000000528D1
:08000800622C83120313850131
:100010008601FF30B200B501B601B701B801B901E0
:10002000E40183160313CE308600FD308500831271
:1000300003130030FE00FF010C30A5000030A600C5
:100040000030BC00BD000030A8000130A900CE0186
:10005000D4010C30AA00AB01AD01AE010130E500C6
:10006000FF30E6000530D5003F30D6000530D70020
:100070009330D800C801C001C201C101C7018F017E
:100080008E01313090001930B1000C3096003530BF
:1000900095000A3097000C1177230630DE008F3070
:1000A000DF000730E000D930E100AC226400FA2321
:1000B0003308320203198E292E08B4002E10B31B08
:1000C0002E14E508031D8028E608031D8028340847
:1000D0002E02031980282E1877280630DE006F3094
:1000E000DF000630E0007F30E100AC2280280630DF
:1000F000DE007F30DF000630E0008F30E100AC2210
:10010000B31DAC28B219AC2801307E0203199D281A
:100110000630DE004B30DF000630E0005330E100F7
:10012000AC2204307E02031997287E08AC0001300F
:10013000FE000030FF002914AC280630DE005B30E2
:10014000DF000630E0006330E100AC222C08FE0046
:100150000330FF002830A700331ED828321AD828D1
:1001600004307E020319C9280630DE005330DF0058
:100170000630E0005B30E100AC2201307E02031962
:10018000C3287E08AC000430FE000030FF002914B4
:10019000D8280630DE006330DF000630E0006B3028
:1001A000E100AC222C08FE000330FF002830A7003D
:1001B000331F1029321B102904307E02031DEA2848
:1001C000D408031DE728CE015414F22210293F233E
:1001D000F22210290630DE004730DF000630E00052
:1001E0004B30E100AC2207307E02031DFA280830B4
:1001F000FE00102908307E02031D06290930FE008A
:100200000430FF002830A7006A23102909307E023D
:10021000031D0D290030FE0010290730FE006A235F
:10022000B31E4429B21A44290630DE006B30DF00C9
:100230000630E0006D30E100AC220130FF000830F4
:10024000BE0001307E02031D33294714A50A0C307D
:100250002502031D2D290130A8060D302502031D9E
:1002600044290130A50004307E02031D4429AA0A56
:100270000C302A02031D3E290130AD060D302A0242
:10028000031D44290130AA00B31A4A29B21E4A2983
:100290000030FF00B31C7429B21874290630DE0048
:1002A0006D30DF000630E0006F30E100AC2202303C
:1002B000FF000830BE0001307E02031D692947148B
:1002C000A60A3C302602031C74290030A600BC019B
:1002D000BD0104307E02031D7429AB0A3C302B02A1
:1002E000031C74290030AB00B3187A29B21C7A2998
:1002F0000030FF003308B20007307E0203198D2959
:1003000001307E0203198D2904307E0203198D29E4
:1003100009307E0203198D291F10772383120313DE
:100320000C1D4B2A0C11353095070318960A0C301A
:100330009607B10B4B2A1930B1000030CD00BD0A31
:100340000319BC0AD303FF305302031DD203A70BCA
:10035000BC2903307F020319B72904307F02031D33
:10036000BC290330FF002830A7004D14BC290430FD
:10037000FF002830A7004D1401307E020319C52963
:1003800004307E020319C529C82929144D14D42923
:100390003D1DCF29291CD4294D142910D4292918F1
:1003A000D4294D142914D42901303C02031DF1290C
:1003B000E0303D02031DF129BC01BD01A60A3C301D
:1003C0002602031CF129A601A50A0C302502031DF3
:1003D000EB290130A8060D302502031DF12901305B
:1003E000A50000307E020319FD2909307E02031D9D
:1003F000002A03307F02031D002A4D1877234B2A61
:1004000001307F02031D2D2ABE0B4B2A01307E02D4
:10041000031D1C2AA50A0C302502031D112A0130D8
:10042000A8060D302502031D2A2A0130A5002A2A1C
:1004300004307E02031D2D2AAA0A0C302A02031D55
:10044000232A0130AD060D302A02031D2A2A01306D
:10045000AA002A2A0130BE00772302307F02031D42
:100460004B2ABE0B4B2A01307E02031D3F2AA60AEF
:100470003C302602031D472A0030A600472AAB0A5B
:100480003C302B02031D472A0030AB00472A0130C5
:10049000BE0077234B2A831203134E18672A2E1CA3
:1004A0006D2A25082A02031D6D2A26082B02031D2A
:1004B0006D2ABC08031D6D2ABD08031D6D2A28087E
:1004C0002D02031D6D2A471C6D2A4E14F2222E1890
:1004D0006C2A0B23CE016D2A0E23541C782A04307B
:1004E0007E02031D752A0E23782A0B23D401782A55
:1004F00007307E020319842A09307E02031D9C2ADC
:1005000004307F02031D9C2A831203131F199C2AA7
:10051000D10B9C2AFF30D100831203131E088312D3
:100520000313C0007B24C1070318C20AC80B9B2A0F
:100530007723C101C2011F15591C9F2AC722E50854
:10054000031DA62AE608031DA62A56280130E60246
:1005500003185628E50256284E18080054180800BB
:1005600059140A309D005E08E2005F08E3007F3006
:10057000920083160313143092008312031306149F
:10058000E4240F089C000E089B00E41408008C185B
:10059000CB2A641CDA2A8C1064100130DD02031CA3
:1005A000DC03FF305C02031DDA2AFF305D02031D0D
:1005B000DA2AE424591C08000D1C080013305A02E2
:1005C000031DE82A88305B02031DE82A0610EA2A88
:1005D000013086060D105B089B0703189C0A5A0819
:1005E0009C0708000A309D005508CA005608CB0039
:1005F0007F3092008316031314309200831203138A
:1006000090240F089C000E089B008C140130D2002F
:10061000E030D3000800061092010800D208031D44
:10062000182BD308031D182BCE01D4010B2308006F
:100630008C1C292B8C1064140130CF02031CC903BD
:10064000FF304902031D292BFF304F02031D292BC8
:1006500090240D1C080013304502031D352B8830F3
:100660004602031D352B0610372B013086060D1070
:1006700046089B0703189C0A45089C07080005309C
:100680005502031D502B3F305602031D502B0530E1
:10069000D5009330D6000530D700C330D80008000D
:1006A00005305502031D612B93305602031D612B4B
:1006B0000530D500C330D6000630D7004730D8000B
:1006C00008000530D5003F30D6000530D700933004
:1006D000D8000800831603134F309F0083120313C2
:1006E000C5309F000130C8000130D10008008312DE
:1006F0000313A001A101A201A301A0132E18A017AA
:10070000201700307E020319912B01307E0203195D
:10071000912B09307E02031DAE2B03307F02031D97
:10072000AE2B4718962B2918962BAC2B2818A01601
:10073000291820152508AF00332418303018A007D9
:100740002F086724A1002608AF003324300867244F
:10075000A2002F086724A3004724080004307E026B
:10076000031DCA2B2D18A016291820152A08AF0022
:10077000332418303018A0072F086724A1002B0855
:10078000AF00332430086724A2002F086724A30099
:100790004724080007307E020319D62B09307E0259
:1007A000031DEC2B04307F02031DEC2BC401420817
:1007B000AF00332443080319E02B6724A10044143D
:1007C0003008031DE52B441CE72B6724A2002F08EB
:1007D0006724A3004724080008307E02031D080098
:1007E000FF30A000FF30A100FF30A200FF30A300C7
:1007F00047240800CC0B08004030CC00123008061B
:10080000FA39B3008030BB0035301B244030BB00C8
:1008100036301B242030BB0037301B241030BB0087
:1008200038301B240830BB0039301B240230BB0099
:100830003A301B24080084003B0833050319252C9B
:10084000FF300002031D800A282C8008031D80034E
:1008500080300002031C2F2C3B08B30408003B0827
:10086000FF3AB305080083120313FF30B000C30042
:100870006430C30AAF020318392C6430AF070A3062
:10088000B00AAF020318402C0A30AF0708008312E9
:10089000031385102030A4000612A30C8612031C3B
:1008A00086160616A20CA3130318A317A10CA213F5
:1008B0000318A217A00CA1130318A117A40B4C2C0A
:1008C000851408000900831603178C170C14831273
:1008D0000317353E8D0005300318013E8F00831647
:1008E00003178C170C1400000000831203170C0868
:1008F000831203130800831203178D0007308F0043
:10090000D9308D0703188F0A831603178C170C1420
:1009100000000000831203170C0883120313080061
:10092000831203134B08831203178D0083120313E2
:100930004A08831203178F00831603178C170C14B1
:1009400000000000831203170E0883120313C50072
:10095000831203170C0883120313C60083120317B4
:1009600001308D0703188F0A831603170C1400003B
:100970000000831203170E0883120313C9008312A9
:1009800003170C0883120313CF00831203170130DF
:100990008D0703188F0A0F0883120313CA008312EE
:1009A00003170D0883120313CB008C1064104A0840
:1009B0005702031D08004B085802031D0800550884
:1009C000CA005608CB0008008312031362086002B5
:1009D000031DF12C63086102031DF12CD9010610DF
:1009E00008006308831203178D0083120313620843
:1009F000831203178F00831603178C170C14000043
:100A00000000831203170E0883120313DA00831207
:100A100003170C0883120313DB0083120317013042
:100A20008D0703188F0A831603170C1400000000AB
:100A3000831203170E0883120313DC0083120317BB
:100A40000C0883120313DD008312031701308D0796
:100A500003188F0A0F0883120313E200831203178F
:100A60000D0883120313E3000800DE345034EC3425
:100A7000F8347234BA34BE34D034FE34FA34F2046A
:100A80007D00AA047D00B4037D001D037D00790272
:100A90007D0088137701AA047D00B4037D001D0347
:100AA0007D0079027D0014027D0088137701E4093E
:100AB0007D0054097D0068077D003A067D00F20440
:100AC0007D008813770154097D0068077D003A0690
:100AD0007D00F2047D0028047D0088137701E4097D
:100AE0007D0054097D0068077D003A067D00F20410
:100AF0007D00AA047D00B4037D001D037D00790202
:100B00007D0055027D00DA017D008E017D003C01F3
:100B10007D002A017D00ED007D00C7007D0095006D
:100B2000D0078813E803AA047D0028047D00B403DD
:100B30007D004D037D00F0027D009E027D00550288
:100B40007D0014027D00DA017D00A6017D007801A0
:100B50007D004F017D002A017D004F017D0078015D
:100B60007D00A6017D00DA017D0014027D005502A2
:100B70007D009E027D00F0027D004D037D00B403E8
:100B80007D0028047D004D037D00A6017D00140238
:100B90007D004D037D001D037D008E017D0014024C
:100BA0007D001D037D004D037D00A6017D00140224
:100BB0007D004D037D007F037D00BF017D00140299
:100BC0007D007F037D00B4037D00DA017D00140207
:100BD0007D00B4037D004D037D00A6017D0014025D
:100BE0007D004D037D0028047D0014027D00C602B7
:100BF0007D0028047D008C057D00C6027D004D032C
:100C00007D008C05410088133C008C057D00C602E8
:100C10007D00B4037D008C05410088133C008C05E9
:100C20007D00C6027D00EC037D008C057D00E005A3
:100C30007D00F0027D0028047D00E0057D003A067D
:100C40007D001D037D0028047D003A067D009A0684
:100C50007D004D037D0028047D009A067D00FE0680
:100C60007D007F037D0028047D00FE067D0068076F
:100C70007D00B4037D0067047D0068077D00180BCC
:100C80007D0088137D00C00B7D0088137D002A0144
:100C90006400950064002A016400ED006400C70050
:100CA0006400950064002A016400FB006400C70032
:100CB00064009500640095006400C7006400ED00C6
:100CC00064002A01640095006400C7006400FB0012
:100CD00064002A016400ED006400C70064002A017A
:100CE00032000A013200ED003200DF003200C7009E
:100CF0003200B10032009E003200950032009500B3
:100D00003200A7003200BC003200C7003200DF0012
:100D10003200FB0032000A0132002A013200550283
:100D20001900DA0119008E01190055021900DA01C3
:100D300019008E01190055021900DA0119008E01FF
:100D4000190055021900DA0119008E011900550227
:100D50001900BF0119006301190055021900BF01F4
:100D600019006301190055021900BF011900630140
:100D7000190055021900BF0119006301190055023D
:100D80001900DA0119008E01190055021900DA0163
:100D900019008E01190055021900DA0119008E019F
:100DA000190055021900DA0119008E011900881383
:100DB0002C01DA0119008E0119003C011900DA0139
:100DC00019008E0119003C011900DA0119008E0189
:100DD00019003C011900DA0119008E0119003C01CB
:100DE0001900DA011900630119002A011900DA015A
:100DF0001900630119002A011900DA0119006301C1
:100E000019002A011900DA011900630119002A01E9
:100E10001900DA0119008E0119003C011900DA01EC
:100E200019008E0119003C011900DA0119008E0128
:100E300019003C011900DA0119008E0119003C016A
:100E4000190088132C018E0119003C0119000A01B8
:100E500019008E0119003C0119000A0119008E01C8
:100E600019003C0119000A0119008E0119003C010A
:100E700019000A0119008E0119002A011900ED005C
:100E800019008E0119002A011900ED0019008E01C8
:100E900019002A011900ED0019008E0119002A011C
:100EA0001900ED0019008E0119003C0119000A011A
:100EB00019008E0119003C0119000A0119008E0168
:100EC00019003C0119000A0119008E0119003C01AA
:100ED00019000A01190088132C0155021900DA01C2
:100EE00019008E01190055021900DA0119008E014E
:100EF000190055021900DA0119008813640055021F
:100F00001900DA0119008E01190055021900DA01E1
:100F100019008E01190055021900DA011900881311
:100F2000640055021900DA0119008E0119005502FA
:100F30001900DA0119008E01190055021900DA01B1
:100F400019008E01190055021900DA0119008E01ED
:100F5000190055021900DA0119008E011900550215
:100F60001900DA0119008E01190055021900DA0181
:100F700019008E01190055021900DA0119008E01BD
:100F8000190055021900DA0119008E0119005502E5
:100F90001900DA0119008E01190055021900DA0151
:100FA00019008E01190055021900DA0119008E018D
:100FB000190020002300260029002C002F003200F9
:100FC000350037003A003C003E004000420044003B
:100FD000460048004A004C004D004F0051005200AE
:100FE00054005500570058005A005B005C005E003A
:100FF0005F006000610063006400650066006700D8
:10100000680069006A006C006D006E006F0070007F
:101010007100720073007300740075007600770031
:10102000780079007A007B007B007C007D007E00E8
:101030007F007F00800081008200830083008400A5
:1010400085008500860087008700880089008A0067
:101050008A008B008C008C008D008E008E008F002B
:101060008F009000910091009200920093009400F4
:1010700094009500950096009700970098009800BE
:10108000990099009A009A009B009B009C009D008B
:101090009D009E009E009F009F00A000A000A10058
:1010A000A100A100A200A200A300A300A400A4002C
:1010B000A500A500A600A600A700A700A800A800FC
:1010C000A900A900A900AA00AA00AB00AB00AC00CF
:1010D000AC00AC00AD00AD00AE00AE00AF00AF00A4
:1010E000AF00B000B000B100B100B100B200B2007A
:1010F000B300B300B300B400B400B400B500B50051
:10110000B600B600B600B700B700B700B800B80028
:10111000B900BA00BA00BB00BC00BD00BE00BE00F2
:10112000BF00C000C100C100C200C200C200C200B6
:10113000C300C300C300C300C300C400C400C40094
:10114000C400C400C500C500C500C500C500C60078
:10115000C600C600C600C600C700C700C700C7005B
:10116000C700C800C800C800C800C800C900C9003E
:10117000C900C900C900CA00CA00CA00CA00CA0022
:10118000CB00CB00CC00CC00CC00CD00CD00CD00FE
:10119000CE00CE00CE00CF00CF00CF00D000D000D8
:1011A000D000D100D100D200D200D200D300D300B1
:0211B000D3006A
:00000001FF
