:040000006DEF00F0B0
:10000800FFFF4C82FACF06F0FBCF07F0E9CF08F0EC
:10001800EACF09F0E1CF0AF0E2CF0BF0D9CF0CF02C
:10002800DACF0DF0F3CF0EF0F4CF0FF0F6CF10F0DB
:10003800F7CF11F0F8CF12F0F5CF13F022D0FFFF71
:10004800010E00017E6F9EA205D09E9245C0BEFFA4
:1000580084EC07F0FFFFF0A418D0F094010E316E85
:10006800D6CF68F00001696BD750056E046A04505A
:1000780000016813055000016913000ED76E000EC9
:10008800D66EFFFF000E00017E6FFFFF00017E515C
:10009800D8B4D5D713C0F5FF12C0F8FF11C0F7FFC9
:1000A80010C0F6FF0FC0F4FF0EC0F3FF0DC0DAFF5B
:1000B8000CC0D9FF0BC0E2FF0AC0E1FF09C0EAFF8C
:1000C80008C0E9FF07C0FBFF06C0FAFF4C92110009
:1000D800FFFFBBEF0BF0FFFF000E0001856F000E66
:1000E800846F000E0001836F000E00018E6FFFFF0A
:1000F800070E00018E6501D034D2FFFF00018E513A
:10010800010D600EF324D96E000EF420DA6EDF5074
:10011800D8A423D200018E51040D310EF32400011E
:100128008C6FBF0EF42000018D6F8CC0F6FF8DC060
:10013800F7FF0900FFFFF5CF86F00A00FFFFF5CFB4
:1001480087F0020E00018C25266E000E00018D211D
:10015800276E26C0F6FF27C0F7FF0800FFFFF5CF80
:1001680082F0000E0001816F000E0001856F000E05
:10017800846F3350020D86C026F087C027F0F350F5
:100188002626F450272226C0F6FF27C0F7FF0900CD
:10019800FFFFF5CF28F00900FFFFF5CF29F06AC06F
:1001A8002AF06BC02BF02A1E2B1E2A4A2B2A285015
:1001B8002A2629502B222BBE27D03350020D86C069
:1001C80026F087C027F0F3502626F450272226C0B1
:1001D800F6FF27C0F7FF0900FFFFF5CF28F0090059
:1001E800FFFFF5CF29F06AC02AF06BC02BF02A1E5A
:1001F8002B1E2A4A2B2A28502A240001886F2950AE
:100208002B200001896F2BD0FFFF3350020D86C0D1
:1002180026F087C027F0F3502626F450272226C060
:10022800F6FF27C0F7FF0900FFFFF5CF28F0090008
:10023800FFFFF5CF29F06AC02AF06BC02BF02A1E09
:100248002B1E2A4A2B2A28502A2629502B222A1EBE
:100258002B1E2A4A2B2A2AC088F02BC089F0FFFFC0
:10026800000188510001845D000189510001855910
:10027800D8B004D088C084F089C085F0FFFF0001A1
:1002880089BF14D00001895105E1110E0001885D74
:10029800D8A00CD000018E51010D600EF324D96E48
:1002A800000EF420DA6E010EDF6E57D1FFFF332AFD
:1002B80000018251335CD8A04BD1000E336E000E82
:1002C80000018A6FFFFF070E00018A6501D00FD079
:1002D800FFFF00018A51010D600EF324D96E000E54
:1002E800F420DA6E000EDF6E00018A2BEBD7FFFFD9
:1002F800010E326E030E00018C25266E000E0001E1
:100308008D21276E26C0F6FF27C0F7FF0800FFFFE4
:10031800F5CF7FF0EE0E156EBF0E166E7FEC0CF06B
:10032800030E00018C25266E000E00018D21276E1C
:1003380026C0F6FF27C0F7FF0800FFFFF550226E22
:10034800236A6BEC0DF0F80E156EBF0E166E7FEC7F
:100358000CF084C022F085C023F06BEC0DF00A0E7F
:100368005BEC0CF0CDD0FFFF3D50D8A402D0010EBD
:1003780002D0FFFF000EFFFF3D6E3C50D8B403D003
:100388003C04D8A403D0FFFF95EC06F04750D8B43E
:1003980007D01AEC0DF0000E476E000E376ED8D05D
:1003A800FFFF3D50D8B407D0E90E146EBE0E156E8F
:1003B8002CEC0DF0CDD0FFFF0D0E146EBF0E156E98
:1003C8002CEC0DF0C5D0FFFF020E3C18D8A40BD0C2
:1003D800000E3C6E790E146EBF0E156E2CEC0DF0EF
:1003E80095EC06F0B5D0FFFF020E3C6E8D0E146E34
:1003F800BF0E156E2CEC0DF064EC08F0A9D0FFFFD1
:100408003C04D8A40BD0000E3C6E510E146EBF0EE7
:10041800156E2CEC0DF095EC06F09AD0FFFF010E4E
:100428003C6E650E146EBF0E156E2CEC0DF095EC3F
:1004380006F08ED0FFFFB90E146EBF0E156E2CECB1
:100448000DF0030E3C18D8A405D0000E3C6E95ECB8
:1004580006F07ED0FFFF030E3C6E8EEC0DF078D0D8
:10046800FFFFE8EC0AF07D0E3A6E010E3B6EAD0E12
:10047800146EBF0E156E2CEC0DF06AD0FFFF20EC49
:100488000BF07D0E3A6E010E3B6EA10E146EBF0E80
:10049800156E2CEC0DF05CD0FFFF030E3C18D8A4B1
:1004A80007D0290E146EBE0E156E2CEC0DF050D030
:1004B800FFFF3EEC0DF07D0E3A6E010E3B6EAD0E69
:1004C800146EBF0E156E2CEC0DF042D0FFFF030E1C
:1004D8003C18D8A407D0290E146EBE0E156E2CEC4D
:1004E8000DF036D0FFFF4EEC0DF07D0E3A6E010E8A
:1004F8003B6EA10E146EBF0E156E2CEC0DF028D0BD
:10050800FFFF030E00018C25266E000E00018D21D1
:10051800276E26C0F6FF27C0F7FF0800FFFFF5503B
:10052800000AD8B420D7010AD8B49AD7030AD8B495
:10053800A5D7010AD8B4B0D7070AD8B4C7D7010AD3
:10054800D8B441D7030AD8B45AD7010AD8B472D755
:10055800FFFF010E0001836F04D0FFFF00018E2B07
:10056800C6D5FFFF000183510001D8A41AD0000EA0
:10057800336E000E00018B6FFFFF070E00018B65C5
:1005880001D00FD0FFFF00018B51010D600EF32445
:10059800D96E000EF420DA6E000EDF6E00018B2B90
:1005A800EBD7FFFF1200FFFFFFFF4BC014F0010E57
:1005B800141689501418FE0B1418896E4BA203D018
:1005C800146A142A02D0FFFF146AFFFF14468950E8
:1005D8001418FD0B1418896E4BA403D0146A142A3E
:1005E80002D0FFFF146AFFFF1446144689501418FE
:1005F800FB0B1418896E4BA603D0146A142A02D078
:10060800FFFF146AFFFF1446144614468950141855
:10061800F70B1418896E4BA803D0146A142A02D059
:10062800FFFF146AFFFF143A144689501418DF0BB1
:100638001418896E4BAA03D0146A142A02D0FFFF3B
:10064800146AFFFF8B501418FE0B14188B6E4BACFA
:1006580003D0146A142A02D0FFFF146AFFFF14465D
:100668008B501418FD0B14188B6E4BAE03D0146A04
:10067800142A02D0FFFF146AFFFF144614461446DA
:100688008B501418F70B14188B6E36C014F0010E2B
:100698001416143A8B501418EF0B14188B6E36A2DC
:1006A80003D0146A142A02D0FFFF146AFFFF143A19
:1006B80014468B501418DF0B14188B6E36A403D015
:1006C800146A142A02D0FFFF146AFFFF8D50141811
:1006D800FE0B14188D6E36A603D0146A142A02D0A5
:1006E800FFFF146AFFFF14468D501418FD0B1418F1
:1006F8008D6E36A803D0146A142A02D0FFFF146A3C
:10070800FFFF144614468D501418FB0B14188D6EF9
:1007180036AA03D0146A142A02D0FFFF146AFFFF16
:100728001446144614468D501418F70B14188D6E81
:1007380036AC03D0146A142A02D0FFFF146AFFFFF4
:10074800143A8D501418EF0B14188D6E36AE03D072
:10075800146A142A02D0FFFF146AFFFF143A1446E1
:100768008D501418DF0B14188D6E35C014F0010E5F
:100778001416143A144614468D501418BF0B141846
:100788008D6E35A203D0146A142A02D0FFFF146AB2
:10079800FFFF143214328D5014187F0B14188D6E0D
:1007A80035A403D0146A142A02D0FFFF146AFFFF8D
:1007B8008E501418FE0B14188E6E35A603D0146ACA
:1007C800142A02D0FFFF146AFFFF14468E50141833
:1007D800FD0B14188E6E35A803D0146A142A02D0A3
:1007E800FFFF146AFFFF144614468E501418FB0BC3
:1007F80014188E6E35AA03D0146A142A02D0FFFF8B
:10080800146AFFFF1446144614468E501418F70B4A
:1008180014188E6E35AC03D0146A142A02D0FFFF68
:10082800146AFFFF143A8E501418EF0B14188E6ECA
:1008380035AE03D0146A142A02D0FFFF146AFFFFF2
:10084800143A14468E501418DF0B14188E6E34C0E8
:1008580014F0010E1416143A144614468E50141847
:10086800BF0B14188E6E34A203D0146A142A02D057
:10087800FFFF146AFFFF8F501418FE0B14188F6EB9
:1008880034A403D0146A142A02D0FFFF146AFFFFAD
:1008980014468F501418FD0B14188F6E1200FFFFAA
:1008A800FFFFC168959E8C8E240EAC6E800EAB6ED9
:1008B800080E7E6E000E7F6E570EAF6E9E9A9D9A42
:1008C800F196F08AF094000E336E010E466E850E96
:1008D800D56EF294B10ECD6E130EBC6E870EBB6E44
:1008E8000B0EBA6E990EF66EB90EF76E0900FFFF81
:1008F800F5CF98F00A00FFFFF5CF99F0A10EF66E3C
:10090800B90EF76E0900FFFFF5CF96F00A00FFFF5A
:10091800F5CF97F0A70EF66EB90EF76E0900FFFF38
:10092800F5CF94F00A00FFFFF5CF95F01C0E0001FB
:100938009C6F1C0E00019B6F1C0E00019A6F1C0E11
:10094800CA6ECB680C0EBD6E000EBE6E94949D826E
:100958009890989297909792979497969798979A35
:10096800979C000E966E9490949294969498949A6C
:100978009290929292949296929A010E4B6E95EC66
:1009880006F0F28CF28E000E0001926F000E916F4D
:10099800FFFF800E0001925DD8B005D00400000171
:1009A800914B922BF5D7FFFFC50E156EBF0E166E35
:1009B8007FEC0CF0DE0E156EBF0E166E7FEC0CF0A1
:1009C800FFFF0400D6CF8FF00001906BD7502D6E3B
:1009D8002C6A2C5000018F132D5000019013810EAA
:1009E80000018F5D3E0E00019059D8A02FD04650CF
:1009F800D8A42CD0E00E156EBF0E166E7FEC0CF04E
:100A0800F29EF196000ED76E000ED66EF28E000E94
:100A1800336E000E0001936FFFFF070E0001936510
:100A280001D00FD0FFFF00019351010D600EF32498
:100A3800D96E000EF420DA6E000EDF6E0001932BE3
:100A4800EBD7FFFF010E466E000E326EFFFF3150EE
:100A5800D8B41FD0000E316EF1B603D02C6A2C2A00
:100A680002D0FFFF2C6AFFFF2C462C462C46F15083
:100A78002C18F70B2C18F16E68C06AF069C06BF07F
:100A88004650D8B403D0000E466E03D0FFFF6FEC7B
:100A980000F0FFFFA1A02DD0A19000016C4B6D2BA1
:100AA8003C0E00016C190CE1280E00016D19D8A448
:100AB80007D0000E00016D6F000E6C6F41EC0AF05C
:100AC800FFFF41EC0AF03B50D8A458EC0BF03D5026
:100AD800D8B40FD04750D8A40CD048504A18D8A43E
:100AE80008D039503F18D8A404D04050D8B483EC6B
:100AF8000DF0FFFF00017C5100017D11D8A49EA8D4
:100B08005FD79E989D0E00017825D96E000E0001D2
:100B18007921DA6EDF50AD6E0001784B792B000138
:100B28007C07D8A07D07040E0001795DD8A048D7BE
:100B3800000E0001796F000E786F42D7FFFFFFFFAC
:100B48002EC0F6FF2FC0F7FF30C0F8FF0900FFFFE7
:100B5800F550435CD8B07FD0CFD0FFFF020E2E24D3
:100B6800F66E000E2F20F76E000E3020F86E08008B
:100B7800FFFFF550020D5F0EF324F66EB90EF42058
:100B8800F76E0900FFFFF5CF98F00A00FFFFF5CFD9
:100B980099F0030E2E24F66E000E2F20F76E000E2D
:100BA8003020F86E0800FFFFF5CF9CF06AD0FFFFF9
:100BB800020E2E24F66E000E2F20F76E000E302047
:100BC800F86E0800FFFFF550020D5F0EF324F66E75
:100BD800B90EF420F76E0900FFFFF5CF96F00A0072
:100BE800FFFFF5CF97F0030E2E24F66E000E2F2090
:100BF800F76E000E3020F86E0800FFFFF5CF9BF06F
:100C080040D0FFFF020E2E24F66E000E2F20F76E46
:100C1800000E3020F86E0800FFFFF550020D5F0E41
:100C2800F324F66EB90EF420F76E0900FFFFF5CF36
:100C380094F00A00FFFFF5CF95F0030E2E24F66E10
:100C4800000E2F20F76E000E3020F86E0800FFFF10
:100C5800F5CF9AF016D0FFFF010E2E24F66E000E87
:100C68002F20F76E000E3020F86E0800FFFFF550B9
:100C7800000AD8B472D7010AD8B499D7030AD8B4ED
:100C8800C0D7FFFF040E2E26000E2F22000E3022A2
:100C9800000E436E010E2E24F66E000E2F20F76E06
:100CA800000E3020F86E0800FFFFF550FF0AD8A4A8
:100CB80023D04750D8B418D0F00E37640BD0000EAC
:100CC8002E6E000E2F6E000E306E000E476E000E58
:100CD800376E12D0FFFF290E2E6EBE0E2F6E2E50CD
:100CE8002F10D8A4000E06D0FFFF000E2E6E000EA7
:100CF8002F6E000EFFFF306EFFFF2E502F103010AA
:100D0800D8B40CD02EC0F6FF2FC0F7FF30C0F8FFC4
:100D18000800FFFFF5500009D8B411D7FFFF1200F3
:100D2800FFFFFFFF000E4B6E000E366E000E356E95
:100D3800000E346E4AC01EF0090E4A6404D00A0E32
:100D48001E5E140E4B6EFFFF1E50040DC10EF324E1
:100D5800206EBE0EF420216E20C0F6FF21C0F7FFE2
:100D68000800FFFFF5504B12010E20241C6E000EE8
:100D780021201D6E1CC0F6FF1DC0F7FF0800FFFFF5
:100D8800F5503612020E20241C6E000E21201D6E16
:100D98001CC0F6FF1DC0F7FF0800FFFFF550351215
:100DA800030E20241C6E000E21201D6E1CC0F6FFB1
:100DB8001DC0F7FF0800FFFFF55034123FC014F0C4
:100DC800156A000E176E0A0E166E9CEC0AF0145087
:100DD8001F6E1F50040D990EF324206EBE0EF420D2
:100DE800216E20C0F6FF21C0F7FF0800FFFFF55075
:100DF8004B12010E20241C6E000E21201D6E1CC0FB
:100E0800F6FF1DC0F7FF0800FFFFF5503612020E6F
:100E180020241C6E000E21201D6E1CC0F6FF1DC074
:100E2800F7FF0800FFFFF5503512030E20241C6E53
:100E3800000E21201D6E1CC0F6FF1DC0F7FF080024
:100E4800FFFFF55034121F500A0DF35000083F24DD
:100E58001F6E1F50040D710EF324206EBE0EF42079
:100E6800216E20C0F6FF21C0F7FF0800FFFFF550F4
:100E78004B12010E20241C6E000E21201D6E1CC07A
:100E8800F6FF1DC0F7FF0800FFFFF5503612020EEF
:100E980020241C6E000E21201D6E1CC0F6FF1DC0F4
:100EA800F7FF0800FFFFF5503512030E20241C6ED3
:100EB800000E21201D6E1CC0F6FF1DC0F7FF0800A4
:100EC800FFFFF55034124950D8A403D03C04D8A4ED
:100ED80003D0FFFF3686358AFFFF3E50D8A44B8EDD
:100EE8003D50D8A404D0020E3C18D8A404D0FFFF6B
:100EF8003C04D8A43680FFFFD8EC02F01200FFFFB4
:100F0800FFFF0001764B772B00017605020E0001EA
:100F18007759D8A019D0000E0001776F000E766FB0
:100F280000019C51D8B402D000019C07FFFF0001CA
:100F38009B51D8B402D000019B07FFFF00019A51D2
:100F4800D8B402D000019A07FFFF00019C51D8A431
:100F580017D000019B51D8A413D000019A51D8A4EE
:100F68000FD0200E0001755DD8B004D00001744B7D
:100F7800752BA3D0FFFF4550D8B49FD045069DD010
:100F8800FFFF000E0001756F000E746FFF0E000169
:100F98007227000E7323FF0E00017027000E7123C5
:100FA800FF0E00016E27000E6F23550E036E000121
:100FB80098510001725D0001995100017359D8A040
:100FC80009D0000198510001725F00019951000198
:100FD800735B14D0FFFFD89000019931026E0001B5
:100FE8009831016E01500001725D02500001735981
:100FF800D8A004D000019C51035E04D0FFFF00017B
:101008009C510326FFFF000196510001705D00010D
:10101800975100017159D8A009D0000196510001DB
:10102800705F000197510001715B14D0FFFFD890E9
:1010380000019731026E00019631016E01500001E6
:10104800705D025000017159D8A004D000019B5175
:10105800035E04D0FFFF00019B510326FFFF000140
:10106800945100016E5D0001955100016F59D8A09F
:1010780009D00001945100016E5F000195510001F3
:101088006F5B14D0FFFFD89000019531026E00010C
:101098009431016E015000016E5D025000016F59DC
:1010A800D8A004D000019A51035E04D0FFFF0001CC
:1010B8009A510326FFFF03C045F0FFFF1200FFFF10
:1010C800FFFF000E4B6E000E366E000E356E000EE2
:1010D800346E48C01EF0090E486404D00A0E1E5E25
:1010E800140E4B6EFFFF1E50040DC10EF324206E2C
:1010F800BE0EF420216E20C0F6FF21C0F7FF0800C5
:10110800FFFFF5504B12010E20241C6E000E21200B
:101118001D6E1CC0F6FF1DC0F7FF0800FFFFF5504D
:101128003612020E20241C6E000E21201D6E1CC0DB
:10113800F6FF1DC0F7FF0800FFFFF5503512030E3C
:1011480020241C6E000E21201D6E1CC0F6FF1DC041
:10115800F7FF0800FFFFF550341239C014F0156A84
:10116800000E176E0A0E166E9CEC0AF014501F6ED5
:101178001F50040D990EF324206EBE0EF420216E2C
:1011880020C0F6FF21C0F7FF0800FFFFF5504B1203
:10119800010E20241C6E000E21201D6E1CC0F6FFBF
:1011A8001DC0F7FF0800FFFFF5503612020E20247D
:1011B8001C6E000E21201D6E1CC0F6FF1DC0F7FF1F
:1011C8000800FFFFF5503512030E20241C6E000E98
:1011D80021201D6E1CC0F6FF1DC0F7FF0800FFFF91
:1011E800F55034121F500A0DF350000839241F6EB1
:1011F8001F50040D710EF324206EBE0EF420216ED4
:1012080020C0F6FF21C0F7FF0800FFFFF5504B1282
:10121800010E20241C6E000E21201D6E1CC0F6FF3E
:101228001DC0F7FF0800FFFFF5503612020E2024FC
:101238001C6E000E21201D6E1CC0F6FF1DC0F7FF9E
:101248000800FFFFF5503512030E20241C6E000E17
:1012580021201D6E1CC0F6FF1DC0F7FF0800FFFF10
:10126800F55034123686358A3850D8A44B8E3D5006
:10127800D8A43680D8EC02F01200FFFFFFFF100E52
:10128800205C270E2158D8A00ED020C014F021C011
:1012980015F0270E176E100E166E8BEC0BF014500F
:1012A800300F5BEC0CF0FFFFE80E205C030E2158BA
:1012B800D8A018D0030E176EE80E166E20C014F0D2
:1012C80021C015F08BEC0BF014C01BF015C01CF0FE
:1012D800000E1E6E0A0E1D6EE8EC0BF01B50300F50
:1012E8005BEC0CF0FFFF215004E1640E205CD8A0F9
:1012F80018D0000E176E640E166E20C014F021C0B0
:1013080015F08BEC0BF014C01BF015C01CF0000E90
:101318001E6E0A0E1D6EE8EC0BF01B50300F5BECD6
:101328000CF0FFFF215004E10A0E205CD8A018D071
:10133800000E176E0A0E166E20C014F021C015F0AC
:101348008BEC0BF014C01BF015C01CF0000E1E6EC9
:101358000A0E1D6EE8EC0BF01B50300F5BEC0CF026
:10136800FFFF20C01BF021C01CF0000E1E6E0A0EED
:101378001D6EE8EC0BF01B50300F5BEC0CF012000C
:10138800FFFFFFFF256E25BE04D0000E166E300E3F
:1013980004D0FFFF000E166E310EFFFF156E1550BC
:1013A8005BEC0CF025BC04D0000E186E300E04D097
:1013B800FFFF000E186E310EFFFF176E17505BEC23
:1013C8000CF025BA04D0000E1A6E300E04D0FFFFC0
:1013D800000E1A6E310EFFFF196E19505BEC0CF0FF
:1013E80025B804D0000E1C6E300E04D0FFFF000E8E
:1013F8001C6E310EFFFF1B6E1B505BEC0CF025B60C
:1014080004D0000E1E6E300E04D0FFFF000E1E6EBC
:10141800310EFFFF1D6E1D505BEC0CF025B404D09F
:10142800000E206E300E04D0FFFF000E206E310E2D
:10143800FFFF1F6E1F505BEC0CF025B204D0000EAE
:10144800226E300E04D0FFFF000E226E310EFFFF19
:10145800216E21505BEC0CF025B004D0000E246EF8
:10146800300E04D0FFFF000E246E310EFFFF236EF6
:1014780023505BEC0CF01200FFFFFFFF412AFA0E2D
:101488004118D8A429D0000E416E402A3C0E4018BD
:10149800D8A41ED0000E406E3F2A3C0E3F18D8A498
:1014A80017D0000E3F6E4A2A0C0E4A18D8A40AD04C
:1014B8003E50D8A402D0010E02D0FFFF000EFFFF5D
:1014C8003E6E06D0FFFF0C0E4A6402D0010E4A6E33
:1014D800FFFF4750D8A4372AFFFF422A7D0E421843
:1014E800D8A414D0000E426E4950D8A402D0010EE0
:1014F80002D0FFFF000EFFFF496E3C50D8B403D066
:101508003C04D8A403D0FFFF95EC06F0FFFF2E5053
:101518002F103010D8B409D0442A090E446405D0DD
:10152800000E446E432AA2EC05F0FFFF1200FFFFF5
:10153800FFFF000E196E17AE06D0166C171ED8B036
:10154800172A010E196EFFFF15AE06D0146C151E72
:10155800D8B0152A010E191AFFFF000E1B6E000ED7
:101568001A6E16501710D8B420D0010E186E05D078
:10157800FFFFD89016361736182AFFFF17AEF8D790
:10158800FFFFD8901A361B361650145C17501558A2
:10159800D8A005D01650145E1750155A1A80FFFFB0
:1015A800D89017321632182EEBD7FFFF1950D8B43F
:1015B80004D01A6C1B1ED8B01B2AFFFF1AC014F0E7
:1015C8001BC015F01200FFFFFFFF030E3C18D8A444
:1015D80023D04B28D8A409D0010E4B6E000E366ECE
:1015E800000E356E000E346E13D0FFFFD8903436DF
:1015F80035BE3480D890353636BE3580D8903636EC
:101608004BBE3680D8904B3634B64B80D8EC02F0BF
:10161800FFFFB6EC0CF00DD0FFFF3C04D8A403D0BC
:1016280010EC0CF006D0FFFF020E3C18D8B49BEC6F
:101638000CF0FFFF1200FFFFFFFF030E3C18D8A4B9
:1016480023D04B28D8A409D0010E4B6E000E366E5D
:10165800000E356E000E346E13D0FFFF4BB034868B
:10166800D8904B3236B04B8ED890363235B0368E55
:10167800D890353234B0358ED8903432D8EC02F068
:10168800FFFFB6EC0CF00DD0FFFF3C04D8A403D04C
:1016980036EC0CF006D0FFFF020E3C18D8B4D1ECA3
:1016A8000CF0FFFF1200FFFFFFFF3250D8A405D057
:1016B800000E3B6E000E3A6E27D0FFFF3A063A50F6
:1016C800D8A422D03E0E3A6E10D0FFFFE8EC0AF004
:1016D8001BD0FFFF20EC0BF017D0FFFF3EEC0DF006
:1016E80013D0FFFF4EEC0DF00FD0FFFF00017F512C
:1016F800010AD8B4EAD7030AD8B4EBD7010AD8B498
:10170800ECD7070AD8B4EDD7FFFF1200FFFFFFFFA1
:10171800000E1A6E000E196E16501710D8B420D08D
:10172800010E186E05D0FFFFD89016361736182A06
:10173800FFFF17AEF8D7FFFFD89019361A361650A4
:10174800145C17501558D8A005D01650145E1750C1
:10175800155A1980FFFFD89017321632182EEBD77A
:10176800FFFF19C014F01AC015F01200FFFF2E0E6B
:10177800F66E1B0EF76E000EF86E00EE46F010EED9
:1017880005F00900F5CFEEFFE550E150FAE100EE73
:101798009DF014EE00F0EE6AE550E150FCE1E250F5
:1017A800FAE100EE60F0210EEE6AE806FDE100EED7
:1017B8002EF0180EEE6AE806FDE14C904C92000EF1
:1017C800F86E000154EF04F0FFFF1D501E10D8B44E
:1017D8001CD0010E1F6E05D0FFFFD8901D361E3697
:1017E8001F2AFFFF1EAEF8D7FFFF1D501B5C1E50BF
:1017F8001C58D8A004D01D501B5E1E501C5AFFFF59
:10180800D8901E321D321F2EEFD7FFFF1BC01BF0D2
:101818001CC01CF01200FFFFFFFF000E00016D6FDF
:10182800000E6C6F000E426E000E416E000E406E90
:101838004A2A0C0E4A18D8A409D03E50D8A402D07F
:10184800010E02D0FFFF000EFFFF3E6EFFFF0D0EE0
:101858004A18D8A402D0010E4A6EFFFF95EC06F094
:101868001200FFFFFFFF000E00016D6F000E6C6F8E
:10187800000E426E000E416E000E406E4A064A503F
:10188800D8A402D00C0E4A6EFFFF0B0E4A18D8A43B
:1018980009D03E50D8A402D0010E02D0FFFF000E9E
:1018A800FFFF3E6EFFFF95EC06F01200FFFFFFFF03
:1018B800146E040E00017D5DD8B01AD09D0E000193
:1018C8007A25D96E000E00017B21DA6E14C0DFFF85
:1018D80000017A4B7B2B00017C4B7D2B040E000111
:1018E8007B5DD8A005D0000E00017B6F000E7A6FDB
:1018F800FFFF1200FFFFFFFF0CD0FFFF15C0F6FF30
:1019080016C0F7FF0800FFFFF5505BEC0CF0154A16
:10191800162AFFFF15C0F6FF16C0F7FF0800FFFFE5
:10192800F5500009D8B41200FFFFE7D7FFFFFFFF0B
:10193800482A0C0E4818D8A409D03850D8A402D088
:10194800010E02D0FFFF000EFFFF386EFFFF0D0EE5
:101958004818D8A402D0010E486EFFFF64EC08F0C6
:101968001200FFFFFFFF4B50C5EC09F0200E5BECA7
:101978000CF03650C5EC09F0200E5BEC0CF035503D
:10198800C5EC09F0200E5BEC0CF03450C5EC09F006
:101998000A0E5BEC0CF01200FFFFFFFF48064850F0
:1019A800D8A402D00C0E486EFFFF0B0E4818D8A41E
:1019B80009D03850D8A402D0010E02D0FFFF000E83
:1019C800FFFF386EFFFF64EC08F01200FFFFFFFF17
:1019D800000E00016D6F000E6C6F000E426E000E5F
:1019E800416E000E406E3F2A3C0E3F18D8A402D02C
:1019F800000E3F6EFFFF95EC06F01200FFFFFFFFA1
:101A0800000E00016D6F000E6C6F000E426E000E2E
:101A1800416E000E406E3F063F28D8A402D03B0E10
:101A28003F6EFFFF95EC06F01200FFFFFFFF000E70
:101A380000019C6F000E00019B6F000E00019A6F61
:101A4800000E2E6E000E2F6E000E306E1200FFFF7D
:101A5800FFFF14C02EF015C02FF02E502F10D8A461
:101A6800000E306E000E446E000E436EA2EC05F0C0
:101A78001200FFFFFFFF3C04D8A403D0EBEC0CF0EE
:101A880006D0FFFF020E3C18D8B45EEC0DF0FFFF45
:101A98001200FFFFFFFF3C04D8A403D003EC0DF0B5
:101AA80006D0FFFF020E3C18D8B477EC0DF0FFFF0C
:101AB8001200FFFFFFFF392A3C0E3918D8A402D0C4
:101AC800000E396EFFFF64EC08F01200FFFFFFFF05
:101AD80022C020F023C021F042EC09F0200E5BEC7C
:101AE8000CF01200FFFFFFFF39063928D8A402D0F6
:101AF8003B0E396EFFFF64EC08F01200FFFFFFFF9A
:101B0800010E476E290E146EBE0E156E2CEC0DF0EC
:101B18001200FFFFFFFF3468356836684B68D8EC61
:0B1B280002F01200FFFF01010C010C95
:021B3400FFFFB1
:10B95E0000A74A76468242C63E403BED37C934D3F5
:10B96E0031072F632CE5298B2753253B2341216378
:10B97E001FA01DF61B641AE91883173116F214C5A1
:10B98E0013A9129D11A010B10FD00EFB0D320D7424
:10B99E000CC10B180B790AE20954093031323334D9
:10B9AE0035363738396162636465667C05B9027372
:10B9BE00003A007200EC00740039007100EC006F68
:10B9CE0000EF007000F0006F00EC00700040006CA3
:10B9DE0000F2006C0041006C00F2006C0040006A46
:10B9EE0000430069004400680044006800F5006BE5
:10B9FE00004200680045006A0042006800F6006CD4
:10BA0E0000F200690044006A0043006B0042006BC4
:10BA1E0000F3006800F6006800F600690044006A52
:10BA2E000043006800F6006800F6006700F7006744
:10BA3E000035186E05470167007A05BA02770035A2
:10BA4E00007400ED0070003A007300EE007000EA22
:10BA5E00006F00F2006D00F00070003D007000EE0F
:10BA6E00006C0041006F00EE006D0040006C004164
:10BA7E00006C0041006B0041006B00F2006B004255
:10BA8E00006900F4006900F5006C0041006C00F2E2
:10BA9E00006B0042006B0042006B0042006B00F333
:10BAAE00006B0042006A0043006A00F4006A004323
:10BABE00006800F6006B00F3006B00F200680035C2
:10BACE00186E0548016B007C05BB0270003D0070CE
:10BADE0000EE0071003B007100ED006D00F1006C96
:10BAEE0000F2007200EB006E003F006F00EE00707F
:10BAFE00003E006D00F1006D0040006C0041006CD6
:10BB0E000041006B0042006B00F2006B00F3006E10
:10BB1E00003F006F00EE006B0042006B00F3006B05
:10BB2E00004200690044006B0042006B0042006B53
:10BB3E0000F3006B0042006800F600690045006BE0
:10BB4E0000F2006B00F2006900F500680035186F16
:10BB5E000546016A007C05BA0273003A007000EDDA
:10BB6E0000760037007300EB007000F1006F00EC00
:10BB7E00007300EB00700040006C00F2006F003E9E
:10BB8E00006D00F1006F003E0070003D006D004042
:10BB9E00006F003E007000EE006C00F2006C00F2D0
:10BBAE000069004400690045006A00F3006B004123
:10BBBE00006900F5006B0042006B0042006B004212
:10BBCE00006A00F3006B00F300690044006800F6A1
:10BBDE0000690044006800F6006A0032186F0547DD
:10BBEE000167007C05BA02750039007300EB007125
:10BBFE00003B007200ED007100EF007000EB007171
:10BC0E0000F00070003C006D00F1006F003E006E11
:10BC1E0000F0006D0040006C0041006C0041006DB2
:10BC2E000040006C00F2006C0041006D00F0006BF3
:10BC3E000042006B0042006B00F200690043006B93
:10BC4E0000F3006A0044006900F4006B00410069D3
:10BC5E0000F5006B00F200670046006700F7006811
:10BC6E000045006900F5006B003118700546016A49
:10BC7E00007E05B60276003A007100EC00730039C2
:10BC8E00006E00F0007000EE007000ED006D00F12F
:10BC9E00006D0040006C00F2006E003F006F00EF80
:10BCAE00006C0041006C0041006C0041006C0041D2
:10BCBE00006C00F2006F00EF006B00F3006C0041AF
:10BCCE00006B00F2006C00F1006B0042006B004252
:10BCDE00006B0042006B0042006B0042006B00F3F1
:10BCEE00006B0042006B0042006B00F3006800F630
:10BCFE00006800F6006B0031187205430168007A87
:10BD0E0005BD0271003C007200EC0070003D006F3A
:10BD1E0000EF007000ED006E00EF007000EE006F9F
:10BD2E00003D006F00EE006C0041006B00F2006DF4
:10BD3E000040006B0042006C0041006C0041006B43
:10BD4E0000F200690044006900F5006C0041006BD0
:10BD5E0000F2006B00F2006B0042006A0043006BC1
:10BD6E000042006B00F3006B0042006B00F3006CAE
:10BD7E000040006A0043006B00F2006B00F3006BA2
:10BD8E0000F300670035186F05470169007305C29F
:10BD9E00026B0042006B00F3006B0042006B00F37D
:10BDAE00006B00F3006B00F3006B00F3006B0042BE
:10BDBE00006B00F3006B0042006B00F6006800455C
:10BDCE00006800450068004500680046006800F6FF
:10BDDE00006800F6006700F6006700F6006700F6E0
:10BDEE00006700F7006700450067004600670046E1
:10BDFE000067004600670045006700460067004682
:10BE0E0000670046006700F7006700F7006700F75D
:10BE1E0000670037186F054701670000000C1C070C
:10BE2E0001101C0602131C0600171C0601181C0626
:10BE3E0000171C0602131C0601101C06000C1C0623
:10BE4E0001101C0602131C0600171C0601181C0606
:10BE5E0000171C0602131C0601101C06000C1CFF0A
:10BE6E00FFFFFF00A40406000000060064040200A9
:10BE7E0044040600C0000600C4040400E4040400E8
:10BE8E0000040600E4040600C4040600104B010082
:10BE9E000003000010CA0000108B00000083010098
:10BEAE001089010010C90100000B000010CB010029
:10BEBE00108B016A021000200010000B02100029E6
:10BECE0002100061001000690200006B02000028E1
:10BEDE000010006B021000690210000000241C0309
:10BEEE0001231C0302201C03001F1C03011D1C0345
:10BEFE00021B1C03001A1C0301181CFFFFFFFF008E
:10BF0E0000181C03011A1C03021B1C03001D1C033A
:10BF1E00011F1C0302201C0300231C0301241CFF11
:10BF2E00FFFFFF9BBD47000DBD47017FBC4702F1E0
:10BF3E00BB470363BB4704D5BA470547BA4706B9A3
:10BF4E00B947070000241C03011F1C03021C1C031D
:10BF5E0000181CFFFFFFFF0000181C03011C1C0330
:10BF6E00021F1C0300241CFFFFFFFF0000241C0304
:10BF7E00011E1C03021B1C0300181CFFFFFFFF0009
:10BF8E0000181C03011B1C03021E1C0300241CFFB3
:10BF9E00FFFFFF0000241C0301181CFFFFFFFF0022
:10BFAE0000181C0301241CFFFFFFFF0000212A00C4
:10BFBE0001242AFFFFFFFF57656C636F6D652074C8
:10BFCE006F204865726F696E65636C6F636B2032AC
:10BFDE000A0049522074696D6564206F75740A00F9
:10BFEE00495220636F64653A20006572726F723D2C
:02BFFE00000041
:020000040020DA
:08000000FFFFFFFFFFFFFFFF00
:020000040030CA
:0E000000FF260F1F838381FF0FC00FE00F400C
:00000001FF
