:040000006DEF00F0B0
:10000800FFFF4C82FACF06F0FBCF07F0E9CF08F0EC
:10001800EACF09F0E1CF0AF0E2CF0BF0D9CF0CF02C
:10002800DACF0DF0F3CF0EF0F4CF0FF0F6CF10F0DB
:10003800F7CF11F0F8CF12F0F5CF13F022D0FFFF71
:10004800010E00017E6F9EA205D09E9245C0BEFFA4
:10005800A2EC07F0FFFFF0A418D0F094010E316E67
:10006800D6CF68F00001696BD750056E046A04505A
:1000780000016813055000016913000ED76E000EC9
:10008800D66EFFFF000E00017E6FFFFF00017E515C
:10009800D8B4D5D713C0F5FF12C0F8FF11C0F7FFC9
:1000A80010C0F6FF0FC0F4FF0EC0F3FF0DC0DAFF5B
:1000B8000CC0D9FF0BC0E2FF0AC0E1FF09C0EAFF8C
:1000C80008C0E9FF07C0FBFF06C0FAFF4C92110009
:1000D800FFFF36EF0CF0FFFF000E0001866F000EE9
:1000E800856F000E0001846F000E00018F6FFFFF07
:1000F800070E00018F6501D049D2FFFF00018F5123
:10010800010D600EF324D96E000EF420DA6EDF5074
:10011800D8A438D200018F51040D310EF324000108
:100128008D6FBF0EF42000018E6F8DC0F6FF8EC05C
:10013800F7FF0900FFFFF5CF87F00A00FFFFF5CFB3
:1001480088F0020E00018D25266E000E00018E211A
:10015800276E26C0F6FF27C0F7FF0800FFFFF5CF80
:1001680083F0000E0001826F000E0001866F000E02
:10017800856F3250020D87C026F088C027F0F350F3
:100188002626F450272226C0F6FF27C0F7FF0900CD
:10019800FFFFF5CF28F00900FFFFF5CF29F06AC06F
:1001A8002AF06BC02BF02A1E2B1E2A4A2B2A285015
:1001B8002A2629502B222BBE27D03250020D87C069
:1001C80026F088C027F0F3502626F450272226C0B0
:1001D800F6FF27C0F7FF0900FFFFF5CF28F0090059
:1001E800FFFFF5CF29F06AC02AF06BC02BF02A1E5A
:1001F8002B1E2A4A2B2A28502A240001896F2950AD
:100208002B2000018A6F2BD0FFFF3250020D87C0D0
:1002180026F088C027F0F3502626F450272226C05F
:10022800F6FF27C0F7FF0900FFFFF5CF28F0090008
:10023800FFFFF5CF29F06AC02AF06BC02BF02A1E09
:100248002B1E2A4A2B2A28502A2629502B222A1EBE
:100258002B1E2A4A2B2A2AC089F02BC08AF0FFFFBE
:10026800000189510001855D00018A51000186590C
:10027800D8B004D089C085F08AC086F0FFFF00019D
:100288008ABF14D000018A5105E1110E0001895D71
:10029800D8A00CD000018F51010D600EF324D96E47
:1002A800000EF420DA6E010EDF6E6CD1FFFF322AE9
:1002B80000018351325CD8A060D1000E326E000E6E
:1002C80000018B6FFFFF070E00018B6501D00FD077
:1002D800FFFF00018B51010D600EF324D96E000E53
:1002E800F420DA6E000EDF6E00018B2BEBD7FFFFD8
:1002F800010E0001806F030E00018D25266E000E91
:1003080000018E21276E26C0F6FF27C0F7FF0800E0
:10031800FFFFF5CF7FF0EE0E156EBF0E166E52EC96
:100328000DF0030E00018D25266E000E00018E21B2
:10033800276E26C0F6FF27C0F7FF0800FFFFF5501D
:10034800226E236A1EEC0EF0F80E156EBF0E166EA6
:1003580052EC0DF085C022F086C023F01EEC0EF0A2
:100368000A0E2EEC0DF0D9D0FFFF3D50D8A402D0D4
:10037800010E02D0FFFF000EFFFF3D6E3C50D8B4C7
:1003880003D03C04D8A404D0FFFFB1EC06F006D09B
:10039800FFFF020E3C18D8B482EC08F0FFFF37507C
:1003A800D8B40BD00D0E146EBF0E156E63EC0CF0A6
:1003B800000E376E000E366ED8D0FFFF3D50D8B411
:1003C80007D0E90E146EBE0E156E63EC0CF0CDD09E
:1003D800FFFF0D0E146EBF0E156E63EC0CF0C5D04A
:1003E800FFFF020E3C18D8A40BD0000E3C6E790E0D
:1003F800146EBF0E156E63EC0CF0B1EC06F0B5D0C0
:10040800FFFF020E3C6E8D0E146EBF0E156E63EC70
:100418000CF082EC08F0A9D0FFFF3C04D8A40BD064
:10042800000E3C6E510E146EBF0E156E63EC0CF090
:10043800B1EC06F09AD0FFFF010E3C6E650E146E0B
:10044800BF0E156E63EC0CF0B1EC06F08ED0FFFF1A
:10045800B90E146EBF0E156E63EC0CF0030E3C184B
:10046800D8A405D0000E3C6EB1EC06F07ED0FFFF9C
:10047800030E3C6E41EC0EF078D0FFFF5DEC0BF004
:100488007D0E3A6E010E3B6EAD0E146EBF0E156EEC
:1004980063EC0CF06AD0FFFF97EC0BF07D0E3A6E20
:1004A800010E3B6EA10E146EBF0E156E63EC0CF0C0
:1004B8005CD0FFFF030E3C18D8A407D0250E146E9D
:1004C800BE0E156E63EC0CF050D0FFFFF1EC0DF092
:1004D8007D0E3A6E010E3B6EAD0E146EBF0E156E9C
:1004E80063EC0CF042D0FFFF030E3C18D8A407D0F1
:1004F800250E146EBE0E156E63EC0CF036D0FFFFA1
:1005080001EC0EF07D0E3A6E010E3B6EA10E146EDC
:10051800BF0E156E63EC0CF028D0FFFF030E000130
:100528008D25266E000E00018E21276E26C0F6FF4F
:1005380027C0F7FF0800FFFFF550000AD8B414D70A
:10054800010AD8B49AD7030AD8B4A5D7010AD8B4EF
:10055800B0D7070AD8B4C7D7010AD8B441D7030A15
:10056800D8B45AD7010AD8B472D7FFFF3750D8B4D5
:1005780004D0000E376E000E366EFFFF010E00012C
:10058800846F04D0FFFF00018F2BB1D5FFFF00015E
:1005980084510001D8A41AD0000E326E000E00015A
:1005A8008C6FFFFF070E00018C6501D00FD0FFFF95
:1005B80000018C51010D600EF324D96E000EF42059
:1005C800DA6E000EDF6E00018C2BEBD7FFFF1200F6
:1005D800FFFFFFFF4BC014F0010E141689501418CA
:1005E800FE0B1418896E4BA203D0146A142A02D089
:1005F800FFFF146AFFFF144689501418FD0B1418E6
:10060800896E4BA403D0146A142A02D0FFFF146A1F
:10061800FFFF1446144689501418FB0B1418896EF2
:100628004BA603D0146A142A02D0FFFF146AFFFFF6
:1006380014461446144689501418F70B1418896E7A
:100648004BA803D0146A142A02D0FFFF146AFFFFD4
:10065800143A144689501418DF0B1418896E4BAAE3
:1006680003D0146A142A02D0FFFF146AFFFF8B50CC
:100678001418FE0B14188B6E4BAC03D0146A142A92
:1006880002D0FFFF146AFFFF14468B501418FD0BAD
:1006980014188B6E4BAE03D0146A142A02D0FFFFD5
:1006A800146AFFFF1446144614468B501418F70BAF
:1006B80014188B6E35C014F0010E1416143A8B50B2
:1006C8001418EF0B14188B6E35A203D0146A142A71
:1006D80002D0FFFF146AFFFF143A14468B50141817
:1006E800DF0B14188B6E35A403D0146A142A02D0B9
:1006F800FFFF146AFFFF8D501418FE0B14188D6E3F
:1007080035A603D0146A142A02D0FFFF146AFFFF2B
:1007180014468D501418FD0B14188D6E35A803D08F
:10072800146A142A02D0FFFF146AFFFF1446144605
:100738008D501418FB0B14188D6E35AA03D0146A4B
:10074800142A02D0FFFF146AFFFF14461446144609
:100758008D501418F70B14188D6E35AC03D0146A2D
:10076800142A02D0FFFF146AFFFF143A8D501418A0
:10077800EF0B14188D6E35AE03D0146A142A02D00C
:10078800FFFF146AFFFF143A14468D501418DF0B4C
:1007980014188D6E34C014F0010E1416143A144651
:1007A80014468D501418BF0B14188D6E34A203D044
:1007B800146A142A02D0FFFF146AFFFF143214329D
:1007C8008D5014187F0B14188D6E34A403D0146A3E
:1007D800142A02D0FFFF146AFFFF8E501418FE0B74
:1007E80014188E6E34A603D0146A142A02D0FFFFA0
:1007F800146AFFFF14468E501418FD0B14188E6EE1
:1008080034A803D0146A142A02D0FFFF146AFFFF29
:10081800144614468E501418FB0B14188E6E34AA06
:1008280003D0146A142A02D0FFFF146AFFFF14468B
:10083800144614468E501418F70B14188E6E34ACE8
:1008480003D0146A142A02D0FFFF146AFFFF143A77
:100858008E501418EF0B14188E6E34AE03D0146A31
:10086800142A02D0FFFF146AFFFF143A14468E5070
:100878001418DF0B14188E6E33C014F0010E141602
:10088800143A144614468E501418BF0B14188E6E62
:1008980033A203D0146A142A02D0FFFF146AFFFFA0
:1008A8008F501418FE0B14188F6E33A403D0146ADB
:1008B800142A02D0FFFF146AFFFF14468F50141841
:1008C800FD0B14188F6E1200FFFFFFFFC168959E85
:1008D8008C8E240EAC6E800EAB6E080E7E6E000EF3
:1008E8007F6E570EAF6E9E9A9D9AF196F08AF0949D
:1008F800000E326E010E466E850ED56EF294B10E64
:10090800CD6E130EBC6E870EBB6E0B0EBA6E950EB7
:10091800F66EB90EF76E0900FFFFF5CF99F00A00E1
:10092800FFFFF5CF9AF09D0EF66EB90EF76E09002F
:10093800FFFFF5CF97F00A00FFFFF5CF98F0A30E61
:10094800F66EB90EF76E0900FFFFF5CF95F00A00B5
:10095800FFFFF5CF96F0220E00019D6F220E0001D9
:100968009C6F220E00019B6F1C0ECA6ECB680C0E8A
:10097800BD6E000EBE6E94949D829890989297904A
:100988009792979497969798979A979C000E966E39
:100998009490949294969498949A92909292929415
:1009A8009296929A010E4B6EB1EC06F0F28CF28E92
:1009B800000E0001936F000E926FFFFF800E000182
:1009C800935DD8B005D004000001924B932BF5D766
:1009D800FFFFC50E156EBF0E166E52EC0DF0DE0E43
:1009E800156EBF0E166E52EC0DF0FFFF0400D6CF49
:1009F80090F00001916BD7502D6E2C6A2C5000019D
:100A080090132D5000019113810E0001905D3E0E50
:100A180000019159D8A030D04650D8A42DD0E00E6E
:100A2800156EBF0E166E52EC0DF0F29EF196000E8A
:100A3800D76E000ED66EF28E000E326E000E0001DA
:100A4800946FFFFF070E0001946501D00FD0FFFFE0
:100A580000019451010D600EF324D96E000EF420AC
:100A6800DA6E000EDF6E0001942BEBD7FFFF010E4C
:100A7800466E000E0001806FFFFF3150D8B41FD0C2
:100A8800000E316EF1B603D02C6A2C2A02D0FFFF7B
:100A98002C6AFFFF2C462C462C46F1502C18F70BDD
:100AA8002C18F16E68C06AF069C06BF04650D8B473
:100AB80003D0000E466E03D0FFFF6FEC00F0FFFF7F
:100AC800A1A031D0A19000016C4B6D2B1E0E00012E
:100AD8006C190CE14B0E00016D19D8A407D0000E5B
:100AE80000016D6F000E6C6F5FEC0AF0FFFF5FECAA
:100AF8000AF03B50D8A4D1EC0BF03D50D8B413D039
:100B08003750D8A410D047504A18D8A40CD0395020
:100B18003F18D8A408D04050D8A405D038503E1863
:100B2800D8B436EC0EF0FFFF00017C5100017D11B6
:100B3800D8A49EA85AD79E989E0E00017825D96EF3
:100B4800000E00017921DA6EDF50AD6E0001784B9E
:100B5800792B00017C07D8A07D07040E0001795D80
:100B6800D8A043D7000E0001796F000E786F3DD7EB
:100B7800FFFFFFFF2EC0F6FF2FC0F7FF30C0F8FFC2
:100B88000900FFFFF550435CD8A0D2D09D927ED0DB
:100B9800FFFF020E2E24F66E000E2F20F76E000EB9
:100BA8003020F86E0800FFFFF550020D5B0EF324AD
:100BB800F66EB90EF420F76E0900FFFFF5CF99F035
:100BC8000A00FFFFF5CF9AF0030E2E24F66E000EF2
:100BD8002F20F76E000E3020F86E0800FFFFF5CFCB
:100BE8009DF06AD0FFFF020E2E24F66E000E2F2015
:100BF800F76E000E3020F86E0800FFFFF550020D6A
:100C08005B0EF324F66EB90EF420F76E0900FFFFB1
:100C1800F5CF97F00A00FFFFF5CF98F0030E2E24CA
:100C2800F66E000E2F20F76E000E3020F86E0800CA
:100C3800FFFFF5CF9CF040D0FFFF020E2E24F66E8A
:100C4800000E2F20F76E000E3020F86E0800FFFF10
:100C5800F550020D5B0EF324F66EB90EF420F76E14
:100C68000900FFFFF5CF95F00A00FFFFF5CF96F0DA
:100C7800030E2E24F66E000E2F20F76E000E302085
:100C8800F86E0800FFFFF5CF9BF016D0FFFF010EAE
:100C98002E24F66E000E2F20F76E000E3020F86E10
:100CA8000800FFFFF550000AD8B472D7010AD8B47B
:100CB80099D7030AD8B4C0D7FFFF9D82040E2E2609
:100CC800000E2F22000E3022000E436E010E2E243D
:100CD800F66E000E2F20F76E000E3020F86E08001A
:100CE800FFFFF550FF0AD8A423D03750D8B418D046
:100CF800F00E36640BD0000E2E6E000E2F6E000E16
:100D0800306E000E376E000E366E12D0FFFF250EC5
:100D18002E6EBE0E2F6E2E502F10D8A4000E06D0A9
:100D2800FFFF000E2E6E000E2F6E000EFFFF306EBE
:100D3800FFFF2E502F103010D8B40CD02EC0F6FF65
:100D48002FC0F7FF30C0F8FF0800FFFFF55000097B
:100D5800D8B40FD7FFFF1200FFFFFFFF000E4B6E46
:100D6800000E356E000E346E000E336E4850D8B447
:100D780006D04950D8A403D03C04D8A4DAD0FFFF49
:100D88004AC01EF0090E4A6404D00A0E1E5E140EF4
:100D98004B6EFFFF1E50040DC10EF324206EBE0ED5
:100DA800F420216E20C0F6FF21C0F7FF0800FFFFE6
:100DB800F5504B12010E20241C6E000E21201D6ED2
:100DC8001CC0F6FF1DC0F7FF0800FFFFF5503512E5
:100DD800020E20241C6E000E21201D6E1CC0F6FF82
:100DE8001DC0F7FF0800FFFFF5503412030E202442
:100DF8001C6E000E21201D6E1CC0F6FF1DC0F7FFE3
:100E08000800FFFFF55033123FC014F0156A000EBA
:100E1800176E0A0E166ECFEC0AF014501F6E1F5094
:100E2800040D990EF324206EBE0EF420216E20C00E
:100E3800F6FF21C0F7FF0800FFFFF5504B12010E27
:100E480020241C6E000E21201D6E1CC0F6FF1DC044
:100E5800F7FF0800FFFFF5503512020E20241C6E24
:100E6800000E21201D6E1CC0F6FF1DC0F7FF0800F4
:100E7800FFFFF5503412030E20241C6E000E2120B3
:100E88001D6E1CC0F6FF1DC0F7FF0800FFFFF550E0
:100E980033121F500A0DF35000083F241F6E1F50D5
:100EA800040D710EF324206EBE0EF420216E20C0B6
:100EB800F6FF21C0F7FF0800FFFFF5504B12010EA7
:100EC80020241C6E000E21201D6E1CC0F6FF1DC0C4
:100ED800F7FF0800FFFFF5503512020E20241C6EA4
:100EE800000E21201D6E1CC0F6FF1DC0F7FF080074
:100EF800FFFFF5503412030E20241C6E000E212033
:100F08001D6E1CC0F6FF1DC0F7FF0800FFFFF5505F
:100F180033124950D8A403D03C04D8A403D0FFFF0F
:100F28003586348AFFFF3E50D8A44B8E3D50D8A456
:100F38003580FFFFEDEC02F01200FFFFFFFF00011C
:100F4800764B772B00017605020E00017759D8A061
:100F580019D0000E0001776F000E766F00019D51C9
:100F6800D8B402D000019D07FFFF00019C51D8B4FE
:100F780002D000019C07FFFF00019B51D8B402D0AA
:100F880000019B07FFFF00019D51D8A417D0000165
:100F98009C51D8A413D000019B51D8A40FD0200E87
:100FA8000001755DD8B004D00001744B752BA3D037
:100FB800FFFF4550D8B49FD045069DD0FFFF000ED7
:100FC8000001756F000E746FFF0E00017227000E8E
:100FD8007323FF0E00017027000E7123FF0E00011E
:100FE8006E27000E6F23680E036E000199510001F1
:100FF800725D00019A5100017359D8A009D000010F
:1010080099510001725F00019A510001735B14D07D
:10101800FFFFD89000019A31026E00019931016EEC
:1010280001500001725D025000017359D8A004D02C
:1010380000019D51035E04D0FFFF00019D5103266E
:10104800FFFF000197510001705D000198510001F8
:101058007159D8A009D0000197510001705F0001B3
:1010680098510001715B14D0FFFFD89000019831AE
:10107800026E00019731016E01500001705D02504F
:1010880000017159D8A004D000019C51035E04D01E
:10109800FFFF00019C510326FFFF0001955100014D
:1010A8006E5D0001965100016F59D8A009D000016A
:1010B800955100016E5F0001965100016F5B14D0DD
:1010C800FFFFD89000019631026E00019531016E44
:1010D800015000016E5D025000016F59D8A004D084
:1010E80000019B51035E04D0FFFF00019B510326C2
:1010F800FFFF03C045F0FFFF1200FFFFFFFF000ED8
:101108004B6E000E356E000E346E000E336E47C007
:101118001EF0090E476404D00A0E1E5E140E4B6EB4
:10112800FFFF1E50040DC10EF324206EBE0EF420E6
:10113800216E20C0F6FF21C0F7FF0800FFFFF55021
:101148004B12010E20241C6E000E21201D6E1CC0A7
:10115800F6FF1DC0F7FF0800FFFFF5503512020E1D
:1011680020241C6E000E21201D6E1CC0F6FF1DC021
:10117800F7FF0800FFFFF5503412030E20241C6E01
:10118800000E21201D6E1CC0F6FF1DC0F7FF0800D1
:10119800FFFFF550331239C014F0156A000E176EB0
:1011A8000A0E166ECFEC0AF014501F6E1F50040D75
:1011B800990EF324206EBE0EF420216E20C0F6FF97
:1011C80021C0F7FF0800FFFFF5504B12010E202445
:1011D8001C6E000E21201D6E1CC0F6FF1DC0F7FFFF
:1011E8000800FFFFF5503512020E20241C6E000E79
:1011F80021201D6E1CC0F6FF1DC0F7FF0800FFFF71
:10120800F5503412030E20241C6E000E21201D6E92
:101218001CC0F6FF1DC0F7FF0800FFFFF550331292
:101228001F500A0DF350000839241F6E1F50040D7B
:10123800710EF324206EBE0EF420216E20C0F6FF3E
:1012480021C0F7FF0800FFFFF5504B12010E2024C4
:101258001C6E000E21201D6E1CC0F6FF1DC0F7FF7E
:101268000800FFFFF5503512020E20241C6E000EF8
:1012780021201D6E1CC0F6FF1DC0F7FF0800FFFFF0
:10128800F5503412030E20241C6E000E21201D6E12
:101298001CC0F6FF1DC0F7FF0800FFFFF550331212
:1012A8003586348A3850D8A44B8E3D50D8A4358022
:1012B800EDEC02F01200FFFFFFFF100E205C270E7E
:1012C8002158D8A00ED020C014F021C015F0270E48
:1012D800176E100E166E06EC0CF01450300F2EEC34
:1012E8000DF0FFFFE80E205C030E2158D8A018D09F
:1012F800030E176EE80E166E20C014F021C015F00C
:1013080006EC0CF014C01BF015C01CF0000E1E6E8D
:101318000A0E1D6EB7EC0CF01B50300F2EEC0DF0C2
:10132800FFFF215004E1640E205CD8A018D0000E05
:10133800176E640E166E20C014F021C015F006EC6E
:101348000CF014C01BF015C01CF0000E1E6E0A0E27
:101358001D6EB7EC0CF01B50300F2EEC0DF0FFFF9C
:10136800215004E10A0E205CD8A018D0000E176E98
:101378000A0E166E20C014F021C015F006EC0CF011
:1013880014C01BF015C01CF0000E1E6E0A0E1D6E58
:10139800B7EC0CF01B50300F2EEC0DF0FFFF20C007
:1013A8001BF021C01CF0000E1E6E0A0E1D6EB7EC5D
:1013B8000CF01B50300F2EEC0DF01200FFFFFFFF5A
:1013C800256E25BE04D0000E166E300E04D0FFFF29
:1013D800000E166E310EFFFF156E15502EEC0DF037
:1013E80025BC04D0000E186E300E04D0FFFF000E8E
:1013F800186E310EFFFF176E17502EEC0DF025BA40
:1014080004D0000E1A6E300E04D0FFFF000E1A6EC4
:10141800310EFFFF196E19502EEC0DF025B804D0CF
:10142800000E1C6E300E04D0FFFF000E1C6E310E35
:10143800FFFF1B6E1B502EEC0DF025B604D0000EDE
:101448001E6E300E04D0FFFF000E1E6E310EFFFF21
:101458001D6E1D502EEC0DF025B404D0000E206E2C
:10146800300E04D0FFFF000E206E310EFFFF1F6EFE
:101478001F502EEC0DF025B204D0000E226E300E57
:1014880004D0FFFF000E226E310EFFFF216E2150A7
:101498002EEC0DF025B004D0000E246E300E04D0D2
:1014A800FFFF000E246E310EFFFF236E23502EEC3B
:1014B8000DF01200FFFFFFFF412AFA0E4118D8A4D1
:1014C8003ED0000E416E402A3C0E4018D8A41ED0D3
:1014D800000E406E3F2A3C0E3F18D8A417D0000ECD
:1014E8003F6E4A2A0C0E4A18D8A40AD03E50D8A4F7
:1014F80002D0010E02D0FFFF000EFFFF3E6E06D0A5
:10150800FFFF0C0E4A6402D0010E4A6EFFFF3750EF
:10151800D8A4362A3E0E2EEC0DF04A508FEC0CF073
:101528003A0E2EEC0DF03F508FEC0CF03A0E2EECEC
:101538000DF040508FEC0CF00A0E2EEC0DF0FFFF72
:10154800422A7D0E4218D8A414D0000E426E49508B
:10155800D8A402D0010E02D0FFFF000EFFFF496E93
:101568003C50D8B403D03C04D8A403D0FFFFB1EC5E
:1015780006F0FFFF2E502F103010D8B409D0442A9F
:10158800090E446405D0000E446E432ABCEC05F0F5
:10159800FFFF1200FFFFFFFF000E196E17AE06D007
:1015A800166C171ED8B0172A010E196EFFFF15AE5C
:1015B80006D0146C151ED8B0152A010E191AFFFF93
:1015C800000E1B6E000E1A6E16501710D8B420D0DD
:1015D800010E186E05D0FFFFD89016361736182A58
:1015E800FFFF17AEF8D7FFFFD8901A361B361650F4
:1015F800145C17501558D8A005D01650145E175013
:10160800155A1A80FFFFD89017321632182EEBD7CA
:10161800FFFF1950D8B404D01A6C1B1ED8B01B2A6F
:10162800FFFF1AC014F01BC015F01200FFFFFFFFE8
:10163800000E216E1DAE06D01C6C1D1ED8B01D2AD2
:10164800010E216EFFFF1FAE04D01E6C1F1ED8B006
:101658001F2AFFFF1E501F10D8B41CD0010E206E89
:1016680005D0FFFFD8901E361F36202AFFFF1FAE79
:10167800F8D7FFFF1E501C5C1F501D58D8A004D07F
:101688001E501C5E1F501D5AFFFFD8901F321E327D
:10169800202EEFD7FFFF2150D8B404D01C6C1D1E9C
:1016A800D8B01D2AFFFF1CC01CF01DC01DF0120081
:1016B800FFFFFFFF030E3C18D8A425D04B28D8A461
:1016C8000BD0010E4B6E000E356E000E346E000E00
:1016D800336EEDEC02F013D0FFFFD890333634BEF2
:1016E8003380D890343635BE3480D89035364BBEEA
:1016F8003580D8904B3633B64B80EDEC02F0FFFFC7
:1017080089EC0DF00DD0FFFF3C04D8A403D0DFEC2A
:101718000CF006D0FFFF020E3C18D8B46EEC0DF0AA
:10172800FFFF1200FFFFFFFF030E3C18D8A425D0CF
:101738004B28D8A40BD0010E4B6E000E356E000E50
:10174800346E000E336EEDEC02F013D0FFFF4BB099
:101758003386D8904B3235B04B8ED890353234B072
:10176800358ED890343233B0348ED8903332EDEC95
:1017780002F0FFFF89EC0DF00DD0FFFF3C04D8A468
:1017880003D007EC0DF006D0FFFF020E3C18D8B4CA
:10179800BEEC0DF0FFFF1200FFFFFFFF00018051BC
:1017A8000001D8A405D0000E3B6E000E3A6E27D07B
:1017B800FFFF3A063A50D8A422D03E0E3A6E10D017
:1017C800FFFF5DEC0BF01BD0FFFF97EC0BF017D081
:1017D800FFFFF1EC0DF013D0FFFF01EC0EF00FD07E
:1017E800FFFF00017F51010AD8B4EAD7030AD8B431
:1017F800EBD7010AD8B4ECD7070AD8B4EDD7FFFF66
:101808001200FFFFFFFF000E1A6E000E196E165031
:101818001710D8B420D0010E186E05D0FFFFD8904D
:1018280016361736182AFFFF17AEF8D7FFFFD890DD
:1018380019361A361650145C17501558D8A005D00A
:101848001650145E1750155A1980FFFFD89017329A
:101858001632182EEBD7FFFF19C014F01AC015F076
:101868001200FFFF940EF66E1C0EF76E000EF86E57
:1018780000EE46F010EE05F00900F5CFEEFFE5505A
:10188800E150FAE100EE9EF014EE00F0EE6AE55049
:10189800E150FCE1E250FAE100EE60F0220EEE6A5F
:1018A800E806FDE100EE2EF0180EEE6AE806FDE10E
:1018B8004C904C92000EF86E000169EF04F0FFFFA7
:1018C8009D92000E00019A6F000E996F000E0001A4
:1018D8009D6F000E0001986F000E976F000E0001BB
:1018E8009C6F000E0001966F000E956F000E0001B0
:1018F8009B6F9D8214C02EF015C02FF02E502F1014
:10190800D8A4000E306E000E446E000E436EBCEC80
:1019180005F01200FFFFFFFF226E000E176E0A0E81
:10192800166E22C014F0156ACFEC0AF014C01CF031
:1019380015C01DF0000E1F6E0A0E1E6E1BEC0BF07C
:101948001C50300F2EEC0DF022C01CF01D6A000E4A
:101958001F6E0A0E1E6E1BEC0BF01C50300F2EEC87
:101968000DF01200FFFFFFFF1D501E10D8B41CD051
:10197800010E1F6E05D0FFFFD8901D361E361F2A98
:10198800FFFF1EAEF8D7FFFF1D501B5C1E501C58F2
:10199800D8A004D01D501B5E1E501C5AFFFFD890C3
:1019A8001E321D321F2EEFD7FFFF1BC01BF01CC0BD
:1019B8001CF01200FFFFFFFF000E00016D6F000E0C
:1019C8006C6F000E426E000E416E000E406E4A2A89
:1019D8000C0E4A18D8A409D03E50D8A402D0010E43
:1019E80002D0FFFF000EFFFF3E6EFFFF0D0E4A18EC
:1019F800D8A402D0010E4A6EFFFF000E486EB1EC6B
:101A080006F01200FFFFFFFF000E00016D6F000ED1
:101A18006C6F000E426E000E416E000E406E4A065C
:101A28004A50D8A402D00C0E4A6EFFFF0B0E4A187B
:101A3800D8A409D03E50D8A402D0010E02D0FFFF8E
:101A4800000EFFFF3E6EFFFF000E486EB1EC06F081
:101A58001200FFFFFFFF146E040E00017D5DD8B079
:101A68001AD09E0E00017A25D96E000E00017B2146
:101A7800DA6E14C0DFFF00017A4B7B2B00017C4B30
:101A88007D2B040E00017B5DD8A005D0000E00015F
:101A98007B6F000E7A6FFFFF1200FFFFFFFF0CD075
:101AA800FFFF15C0F6FF16C0F7FF0800FFFFF5504F
:101AB8002EEC0DF0154A162AFFFF15C0F6FF16C0CA
:101AC800F7FF0800FFFFF5500009D8B41200FFFF28
:101AD800E7D7FFFFFFFF472A0C0E4718D8A409D005
:101AE8003850D8A402D0010E02D0FFFF000EFFFF2D
:101AF800386EFFFF0D0E4718D8A402D0010E476EAE
:101B0800FFFF82EC08F01200FFFFFFFF4B50E3ECF1
:101B180009F0200E2EEC0DF03550E3EC09F0200E04
:101B28002EEC0DF03450E3EC09F0200E2EEC0DF005
:101B38003350E3EC09F00A0E2EEC0DF01200FFFF13
:101B4800FFFF000E00016D6F000E6C6F000E426EFD
:101B5800000E416E000E406E3F2A3C0E3F18D8A47E
:101B680002D0000E3F6EFFFF000E486EB1EC06F08B
:101B78001200FFFFFFFF47064750D8A402D00C0E03
:101B8800476EFFFF0B0E4718D8A409D03850D8A4C9
:101B980002D0010E02D0FFFF000EFFFF386EFFFFDC
:101BA80082EC08F01200FFFFFFFF000E00016D6FCE
:101BB800000E6C6F000E426E000E416E000E406EFD
:101BC8003F063F28D8A402D03B0E3F6EFFFF000E11
:101BD800486EB1EC06F01200FFFFFFFF3C04D8A4EA
:101BE80003D0A4EC0DF006D0FFFF020E3C18D8B4C9
:101BF80011EC0EF0FFFF1200FFFFFFFF3C04D8A41A
:101C080003D0D8EC0DF006D0FFFF020E3C18D8B474
:101C18002AEC0EF0FFFF1200FFFFFFFF392A3C0EEF
:101C28003918D8A402D0000E396EFFFF82EC08F0F4
:101C38001200FFFFFFFF22C020F023C021F060EC5C
:101C480009F0200E2EEC0DF01200FFFFFFFF390601
:101C58003928D8A402D03B0E396EFFFF82EC08F079
:101C68001200FFFFFFFF010E376E250E146EBE0E29
:101C7800156E63EC0CF01200FFFFFFFF3368346849
:101C880035684B68EDEC02F01200FFFF010C010112
:011C98000C3F
:021C9A00FFFF4A
:10B95A0000A74A76468242C63E403BED37C934D3F9
:10B96A0031072F632CE5298B2753253B234121637C
:10B97A001FA01DF61B641AE91883173116F214C5A5
:10B98A0013A9129D11A010B10FD00EFB0D320D7428
:10B99A000CC10B180B790AE20954093031323334DD
:10B9AA0035363738396162636465667C05B9027376
:10B9BA00003A007200EC00740039007100EC006F6C
:10B9CA0000EF007000F0006F00EC00700040006CA7
:10B9DA0000F2006C0041006C00F2006C0040006A4A
:10B9EA0000430069004400680044006800F5006BE9
:10B9FA00004200680045006A0042006800F6006CD8
:10BA0A0000F200690044006A0043006B0042006BC8
:10BA1A0000F3006800F6006800F600690044006A56
:10BA2A000043006800F6006800F6006700F7006748
:10BA3A000035186E05470167007A05BA02770035A6
:10BA4A00007400ED0070003A007300EE007000EA26
:10BA5A00006F00F2006D00F00070003D007000EE13
:10BA6A00006C0041006F00EE006D0040006C004168
:10BA7A00006C0041006B0041006B00F2006B004259
:10BA8A00006900F4006900F5006C0041006C00F2E6
:10BA9A00006B0042006B0042006B0042006B00F337
:10BAAA00006B0042006A0043006A00F4006A004327
:10BABA00006800F6006B00F3006B00F200680035C6
:10BACA00186E0548016B007C05BB0270003D0070D2
:10BADA0000EE0071003B007100ED006D00F1006C9A
:10BAEA0000F2007200EB006E003F006F00EE007083
:10BAFA00003E006D00F1006D0040006C0041006CDA
:10BB0A000041006B0042006B00F2006B00F3006E14
:10BB1A00003F006F00EE006B0042006B00F3006B09
:10BB2A00004200690044006B0042006B0042006B57
:10BB3A0000F3006B0042006800F600690045006BE4
:10BB4A0000F2006B00F2006900F500680035186F1A
:10BB5A000546016A007C05BA0273003A007000EDDE
:10BB6A0000760037007300EB007000F1006F00EC04
:10BB7A00007300EB00700040006C00F2006F003EA2
:10BB8A00006D00F1006F003E0070003D006D004046
:10BB9A00006F003E007000EE006C00F2006C00F2D4
:10BBAA000069004400690045006A00F3006B004127
:10BBBA00006900F5006B0042006B0042006B004216
:10BBCA00006A00F3006B00F300690044006800F6A5
:10BBDA0000690044006800F6006A0032186F0547E1
:10BBEA000167007C05BA02750039007300EB007129
:10BBFA00003B007200ED007100EF007000EB007175
:10BC0A0000F00070003C006D00F1006F003E006E15
:10BC1A0000F0006D0040006C0041006C0041006DB6
:10BC2A000040006C00F2006C0041006D00F0006BF7
:10BC3A000042006B0042006B00F200690043006B97
:10BC4A0000F3006A0044006900F4006B00410069D7
:10BC5A0000F5006B00F200670046006700F7006815
:10BC6A000045006900F5006B003118700546016A4D
:10BC7A00007E05B60276003A007100EC00730039C6
:10BC8A00006E00F0007000EE007000ED006D00F133
:10BC9A00006D0040006C00F2006E003F006F00EF84
:10BCAA00006C0041006C0041006C0041006C0041D6
:10BCBA00006C00F2006F00EF006B00F3006C0041B3
:10BCCA00006B00F2006C00F1006B0042006B004256
:10BCDA00006B0042006B0042006B0042006B00F3F5
:10BCEA00006B0042006B0042006B00F3006800F634
:10BCFA00006800F6006B0031187205430168007A8B
:10BD0A0005BD0271003C007200EC0070003D006F3E
:10BD1A0000EF007000ED006E00EF007000EE006FA3
:10BD2A00003D006F00EE006C0041006B00F2006DF8
:10BD3A000040006B0042006C0041006C0041006B47
:10BD4A0000F200690044006900F5006C0041006BD4
:10BD5A0000F2006B00F2006B0042006A0043006BC5
:10BD6A000042006B00F3006B0042006B00F3006CB2
:10BD7A000040006A0043006B00F2006B00F3006BA6
:10BD8A0000F300670035186F05470169007305C2A3
:10BD9A00026B0042006B00F3006B0042006B00F381
:10BDAA00006B00F3006B00F3006B00F3006B0042C2
:10BDBA00006B00F3006B0042006B00F60068004560
:10BDCA00006800450068004500680046006800F603
:10BDDA00006800F6006700F6006700F6006700F6E4
:10BDEA00006700F7006700450067004600670046E5
:10BDFA000067004600670045006700460067004686
:10BE0A0000670046006700F7006700F7006700F761
:10BE1A0000670037186F054701670000000C22060B
:10BE2A000110220602132206001722060118220612
:10BE3A00011C2206021F22060023220601242206D2
:10BE4A0000232206021F2206011C220601182206CE
:10BE5A00001722060213220601102206000C226095
:10BE6A00000000FFFFFFFF00A40406000000060018
:10BE7A006404020044040600C0000600C40404006E
:10BE8A00E404040000040600E4040600C4040600F6
:10BE9A00104B01000003000010CA0000108B0000C4
:10BEAA00008301001089010010C90100000B000085
:10BEBA0010CB0100108B016A021000200010000B49
:10BECA000210002902100061001000690200006BD4
:10BEDA00020000280010006B021000690210000026
:10BEEA00002422030123220302202203001F22032B
:10BEFA00011D2203021B2203001A2203011822FF3A
:10BF0A00FFFFFF0000182203011A2203021B22036B
:10BF1A00001D2203011F2203022022030023220301
:10BF2A00012422FFFFFFFF97BD470009BD47017BA0
:10BF3A00BC4702EDBB47035FBB4704D1BA47054381
:10BF4A00BA4706B5B947070000242203011F220396
:10BF5A00021C2203001822FFFFFFFF000018220321
:10BF6A00011C2203021F2203002422FFFFFFFF00FD
:10BF7A0000242203011E2203021B2203001822FFAF
:10BF8A00FFFFFF0000182203011B2203021E2203E7
:10BF9A00002422FFFFFFFF0000242203011822FFD2
:10BFAA00FFFFFF0000182203012422FFFFFFFF000A
:10BFBA0000212200012422FFFFFFFF57656C636FF7
:10BFCA006D6520746F204865726F696E65636C6F6A
:10BFDA00636B20320A0049522074696D6564206FD0
:10BFEA0075740A00495220636F64653A20006572CD
:06BFFA00726F723D0000B1
:020000040020DA
:08000000FFFFFFFFFFFFFFFF00
:020000040030CA
:0E000000FF260F1F838381FF0FC00FE00F400C
:00000001FF
