:0400000063EF00F0BA
:10000800FFFF4D82FACF01F0FBCF02F0E9CF03F0FA
:10001800EACF04F0E1CF05F0E2CF06F0D9CF07F040
:10002800DACF08F0F3CF09F0F4CF0AF0F6CF0BF0EF
:10003800F7CF0CF0F8CF0DF0F5CF0EF04DC00FF064
:100048004EC010F04FC011F050C012F00AD0FFFFA0
:10005800010E3F6E9EAA08D09E9AAECF47F0010EC1
:10006800486EFFFF000E3F6EFFFF3F50D8B4EFD73A
:1000780012C050F011C04FF010C04EF00FC04DF03C
:100088000EC0F5FF0DC0F8FF0CC0F7FF0BC0F6FF60
:100098000AC0F4FF09C0F3FF08C0DAFF07C0D9FFA0
:1000A80006C0E2FF05C0E1FF04C0EAFF03C0E9FFA4
:1000B80002C0FBFF01C0FAFF4D921100FFFF9EEF47
:1000C80004F0FFFF2C5008E1800E295C960E2A5898
:1000D800980E2B58D8A016D029C013F02AC014F0B7
:1000E8002BC015F02CC016F0800E176E960E186EE9
:1000F800980E196E000E1A6EE6EC04F01350300FCD
:10010800FBEC05F0FFFF2C5008E1400E295C420E85
:100118002A580F0E2B58D8A016D029C013F02AC081
:1001280014F02BC015F02CC016F0400E176E420EBE
:10013800186E0F0E196E000E1A6EE6EC04F01350CE
:10014800300FFBEC05F0FFFF2C5008E1A00E295CF6
:10015800860E2A58010E2B58D8A016D029C013F0A5
:100168002AC014F02BC015F02CC016F0A00E176E84
:10017800860E186E010E196E000E1A6EE6EC04F06B
:100188001350300FFBEC05F0FFFF2C502B1006E14D
:10019800100E295C270E2A58D8A016D029C013F0B3
:1001A8002AC014F02BC015F02CC016F0100E176ED4
:1001B800270E186E000E196E000E1A6EE6EC04F08B
:1001C8001350300FFBEC05F0FFFF2C502B1006E10D
:1001D800E80E295C030E2A58D8A028D0E80E176E1E
:1001E800030E186E000E196E000E1A6E29C013F059
:1001F8002AC014F02BC015F02CC016F0E6EC04F061
:1002080013C020F014C021F015C022F016C023F04E
:100218000A0E246E000E256E000E266E000E276E46
:100228002EEC05F02050300FFBEC05F0FFFF2C50B2
:100238002B102A1004E1640E295CD8A028D0640E83
:10024800176E000E186E000E196E000E1A6E29C079
:1002580013F02AC014F02BC015F02CC016F0E6ECF1
:1002680004F013C020F014C021F015C022F016C00D
:1002780023F00A0E246E000E256E000E266E000E68
:10028800276E2EEC05F02050300FFBEC05F0FFFF39
:100298002C502B102A1004E10A0E295CD8A028D073
:1002A8000A0E176E000E186E000E196E000E1A6EEA
:1002B80029C013F02AC014F02BC015F02CC016F07A
:1002C800E6EC04F013C020F014C021F015C022F0B1
:1002D80016C023F00A0E246E000E256E000E266E40
:1002E800000E276E2EEC05F02050300FFBEC05F0C9
:1002F800FFFF29C020F02AC021F02BC022F02CC01B
:1003080023F00A0E246E000E256E000E266E000ED7
:10031800276E2EEC05F02050300FFBEC05F0120094
:10032800FFFFFFFF4CC01DF01E6A000E436E000E5B
:10033800426E000E416E000E406E4B50D8B41FD076
:10034800D30EF66EBF0EF76E0800FFFFF55043128E
:10035800D40EF66EBF0EF76E0800FFFFF55042127E
:10036800D50EF66EBF0EF76E0800FFFFF55041126E
:10037800D60EF66EBF0EF76E0800FFFFE0D0FFFF47
:10038800000E1F6E630E4C6428D0640E136E4C5022
:1003980034EC06F04C6E010E1F6ECF0EF66EBF0EDB
:1003A800F76E0800FFFFF5504312D00EF66EBF0E31
:1003B800F76E0800FFFFF5504212D10EF66EBF0E21
:1003C800F76E0800FFFFF5504112D20EF66EBF0E11
:1003D800F76E0800FFFFF5504012FFFF0A0E4C6051
:1003E80003D01F50D8B470D0FFFF4CC013F0146A6C
:1003F800000E166E0A0E156E52EC04F013C020F0B3
:1004080014C021F020C01BF021C01CF0D8901B366E
:100418001C36D8901B361C36870E1B24F66EBF0E72
:100428001C20F76E0800FFFFF550431220C01BF098
:1004380021C01CF0D8901B361C36D8901B361C36B1
:10044800010E1B26000E1C22870E1B24F66EBF0E03
:100458001C20F76E0800FFFFF550421220C01BF069
:1004680021C01CF0D8901B361C36D8901B361C3681
:10047800020E1B26000E1C22870E1B24F66EBF0ED2
:100488001C20F76E0800FFFFF550411220C01BF03A
:1004980021C01CF0D8901B361C36D8901B361C3651
:1004A800030E1B26000E1C22870E1B24F66EBF0EA1
:1004B8001C20F76E0800FFFFF55040120A0E136E5D
:1004C8004C5034EC06F04C6EFFFF4C50040D5F0EA0
:1004D800F324F66EBF0EF420F76E0800FFFFF55008
:1004E80043124C50040D010EF326000EF4225F0E49
:1004F800F324F66EBF0EF420F76E0800FFFFF550E8
:1005080042124C50040D020EF326000EF4225F0E28
:10051800F324F66EBF0EF420F76E0800FFFFF550C7
:1005280041124C50040D030EF326000EF4225F0E08
:10053800F324F66EBF0EF420F76E0800FFFFFFFFEE
:10054800F55040125DEC06F01DC04CF01200FFFFA4
:10055800FFFFAB0EF66EBE0EF76E21EE00F0B30E87
:100568000900FFFFF5CFDEFFE806FAE22D0E0101D4
:10057800B46F98D0FFFF2E0E436E0F0E426E3F0EE3
:10058800416E030E406E5DEC06F00101C32B000EB8
:10059800C16F000EC06F94D0FFFFC04BC12BE20E9D
:1005A800C05D040EC159D8A08BD0C32B000EC16FFB
:1005B800000EC06F25D0FFFFC04BC12BC15104E115
:1005C8007D0EC05DD8A07CD00B0EC26112D0000E8B
:1005D800C16F000EC06FC251010DB50EF324D96E64
:1005E800010EF420DA6EDF504C6EC22B95EC01F050
:1005F80067D0FFFF000E0101C16F3E0EC06FC32B15
:10060800FFFF000EC26F5CD0FFFFC04BC12BC15172
:1006180004E13E0EC05DD8A053D0000EC16F000E9D
:10062800C06FB451C25DD8B038D0C251040D000EAD
:10063800F324D96E010EF420DA6EDF50436EC251F6
:10064800040D010EF326000EF422000EF324D96ED9
:10065800010EF420DA6EDF50426EC251040D020E14
:10066800F326000EF422000EF324D96E010EF420B6
:10067800DA6EDF50416EC251040D030EF326000EF0
:10068800F422000EF324D96E010EF420DA6EDF5046
:10069800406EC22B5DEC06F013D0FFFF000E010187
:1006A800C36F0ED0FFFFC351000AD8B463D7010A45
:1006B800D8B472D7030AD8B47ED7010AD8B4A4D75D
:1006C800FFFF1200FFFFFFFF0E0EC16E959E8C8E7E
:1006D800240EAC6E080E7E6E010E7F6E2F0EAF6E6E
:1006E8009E9A000E486E3C0E496E0B0E4A6E000E26
:1006F800466E900EAB6E9D8A000E446EB10ECD6EA6
:10070800040EBC6EE10EBB6E0B0EBA6ED10E926E6D
:10071800F00E946EC00E976EFC0E986EACEC02F064
:10072800938C8A8CF19EF28CF28E000E0001D46FAD
:10073800000ED36FFFFF800ED45DD8B005D0040043
:100748000001D34BD42BF6D7FFFFD70E146EBF0E84
:10075800156E18EC06F0EF0E146EBF0E156E18EC41
:1007680006F0FFFF04004850D8B410D0000E486EC1
:1007780001D80CD0FFFF0500FA6E4950FD6E4A50B3
:10078800FE6EF850FF6EFA501200FFFFFFFFA1A0A7
:1007980009D0A19081AC03D0CFEC05F003D0FFFFC6
:1007A800ACEC02F0FFFF3D503E10D8A49EA8D9D76C
:1007B8009E98C40E3924D96E010E3A20DA6EDF50A5
:1007C800AD6E394A3A2A3D06D8A03E06040E3A5C78
:1007D800D8A0C7D7000E3A6E000E396EC2D7FFFFF9
:1007E8004550010D2D0EF324D96E000EF420DA6E5B
:1007F80047C0DFFF452A030E45644DD0000E466E04
:100808003C0E496E0B0E4A6E000E0001D16F010EB0
:10081800D26FFFFF030ED26501D013D0FFFFD25174
:10082800010D2D0EF324D96E000EF420DA6E2D5032
:10083800DE18D8B403D0010ED16F03D0FFFFD22B3E
:10084800E8D7FFFFD151D8A426D0000E446E2DC0A2
:100858004CF04C28D8A402D0010E02D0FFFF000EA5
:10086800FFFF4B6EF10E146EBF0E156E18EC06F0FE
:10087800FB0E146EBF0E156E18EC06F04C500001FE
:10088800CC6FCD6BCE6BCF6B4DEC06F00A0EFBEC4C
:1008980005F095EC01F0FFFF1200FFFFFFFF000ECF
:1008A800186E16AE06D0156C161ED8B0162A010E94
:1008B800186EFFFF14AE06D0136C141ED8B0142A9D
:1008C800010E181AFFFF000E1A6E000E196E155051
:1008D8001610D8B420D0010E176E05D0FFFFD8909F
:1008E80015361636172AFFFF16AEF8D7FFFFD89031
:1008F80019361A361550135C16501458D8A005D05E
:100908001550135E1650145A1980FFFFD8901632EE
:100918001532172EEBD7FFFF1850D8B404D0196C36
:100928001A1ED8B01A2AFFFF19C013F01AC014F003
:100938001200FFFFD00EF66E0C0EF76E000EF86E6A
:1009480001EEB5F010EE0BF00900F5CFEEFFE55023
:10095800E150FAE1D00EF66E0A0EF76E000EF86E50
:1009680000EE60F010EE6CF00900F5CFEEFFE550F8
:10097800E150FAE1DB0EF66E0C0EF76E000EF86E23
:100988000900F5CF4BF00900F5CF4CF001EEC4F0AB
:1009980014EE00F0EE6AE550E150FCE1E250FAE1B5
:1009A8000101C36BC26BC16BC06B00EE2DF01C0E56
:1009B800EE6AE806FDE14D904D92000EF86E0001DA
:1009C80067EF03F0FFFF000E1B6E000E1C6E000E9B
:1009D8001D6E000E1E6E1750181019101A10D8B47C
:1009E8002ED0010E1F6E07D0FFFFD890173618368D
:1009F80019361A361F2AFFFF1AAEF6D7FFFFD8900E
:100A08001B361C361D361E361750135C18501458EA
:100A1800195015581A501658D8A009D01750135EF7
:100A28001850145A1950155A1A50165A1B80FFFF9D
:100A3800D8901A321932183217321F2EDFD7FFFF1B
:100A48001BC013F01CC014F01DC015F01EC016F01A
:100A58001200FFFFFFFF2450251026102710D8B4DE
:100A680028D0010E286E07D0FFFFD89024362536EF
:100A780026362736282AFFFF27AEF6D7FFFF245051
:100A8800205C255021582650225827502358D8A09A
:100A980008D02450205E2550215A2650225A27502B
:100AA800235AFFFFD8902732263225322432282EA7
:100AB800E5D7FFFF20C020F021C021F022C022F09E
:100AC80023C023F01200FFFF38FF2CEE6AFFD9E99C
:100AD8009CFFCCE4CEFFDEDE000022D8320079D0C5
:100AE80064000EC89600C5BEC800ECB4FA0080AA1F
:100AF8002C01B29F5E01A9949001A189C201BD7E1B
:100B0800F40129742602F569580253608A023F5796
:100B1800BC02DB4EEE021047200301405203863927
:100B28008403E036B603642EE80366281A047525A4
:100B38004C04AA21FFFF4650010DBF0EF324F66EA8
:100B4800BF0EF420F76E0800FFFFF5504718D8A431
:100B58000BD0462A0F0E46641BD0E60E496E070ED0
:100B68004A6E000E456E14D0FFFFBF0EF66EBF0E24
:100B7800F76E0800FFFFF5504718D8A402D0010E01
:100B880005D0FFFF4650D8B403D0000EFFFF466ED5
:100B9800FFFF1200FFFFFFFF0101C04BC12BC15136
:100BA80004E1FA0EC05DD8A01FD0000EC16F000E80
:100BB800C06F3C0E446002D0442A03D0FFFF010EF0
:100BC8004B6EFFFF95EC01F0000E356E000E366E91
:100BD800000E376E000E386E000E316E000E326E4B
:100BE800000E336E000E346EFFFF1200FFFFFFFF92
:100BF800136E040E3E5CD8B014D0C40E3B24D96EDC
:100C0800010E3C20DA6E13C0DFFF3B4A3C2A3D4A06
:100C18003E2A040E3C5CD8A004D0000E3C6E000EA8
:100C28003B6EFFFF1200FFFFFFFF0CD0FFFF14C059
:100C3800F6FF15C0F7FF0800FFFFF550FBEC05F0C5
:100C4800144A152AFFFF14C0F6FF15C0F7FF080065
:100C5800FFFFF5500009D8B41200FFFFE7D7FFFFE8
:100C6800FFFF146E080E156E000E166EFFFFD8906B
:100C780014341634166ED89014361350165CD8A057
:100C880002D01350165EFFFF152EF0D71650120033
:100C9800FFFFFFFFCCC029F0CDC02AF0CEC02BF05B
:100CA800CFC02CF065EC00F0200EFBEC05F0120034
:100CB800FFFFFFFF43C089FF42C08BFF41C08EFF8B
:100CC80040C08FFF1200FFFF000B16212C37424D4A
:050CD80058636401FFF8
:020CDE00FFFF16
:10BEAA000000000002000000010000020020000063
:10BEBA000000010000000001000002000002000072
:10BECA000000040000000004000000080004000054
:10BEDA000000080000080000000000200000001018
:10BEEA000000002000080000000008000004000014
:10BEFA000000000800000004000004000002000026
:10BF0A000000020000000001000001000020000003
:10BF1A000000000200000000010000000200000012
:10BF2A0003200100000204000004000800000030A1
:10BF3A0000040008000204000020010000000000C4
:10BF4A0003000801000802000000000600080200C1
:10BF5A00000008010020010303000000032002037F
:10BF6A00020002030300030003000303012003038A
:10BF7A0001000001032003030300030303060C0C62
:10BF8A0000020400000A080C000A0C04000E040057
:10BF9A00000C0C04000C0C0C00020C00000E0C0C23
:10BFAA00000E0C04003031323334353637383961FB
:10BFBA006263646566FF98DF7236B90D4882C928E4
:10BFCA00312F56E57C000030000802000057656CEE
:10BFDA00636F6D6520746F20546865726D6F6D654F
:10BFEA0074657220320A006765745F74656D70202B
:05BFFA0000463D0000BF
:020000040020DA
:08000000FFFFFFFFFFFFFFFF00
:020000040030CA
:0E000000FF220F1F838381FF0FC00FE00F4010
:00000001FF
