:0400000058EF00F0C5
:100008004D82FACF01F0FBCF02F0E9CF03F0EACF3F
:1000180004F0E1CF05F0E2CF06F0D9CF07F0DACF50
:1000280008F0F3CF09F0F4CF0AF0F6CF0BF0F7CFD2
:100038000CF0F8CF0DF0F5CF0EF04DC00FF04EC01C
:1000480010F04FC011F050C012F005D04B809EA2A6
:1000580003D09E924C2A4B904BA0F8D712C050F078
:1000680011C04FF010C04EF00FC04DF00EC0F5FF9C
:100078000DC0F8FF0CC0F7FF0BC0F6FF0AC0F4FF75
:1000880009C0F3FF08C0DAFF07C0D9FF06C0E2FFC6
:1000980005C0E1FF04C0EAFF03C0E9FF02C0FBFF9F
:0C00A80001C0FAFF4D921100A8EF09F012
:10060000000D8304800F010F8006820B820B830C88
:10061000800F830F82207C20083034301C3048103B
:100620005C107C2018307C305C57656C636F6D65A6
:1006300020746F204875676520487967726F6D6513
:100640007465720A005374617274696E6720414860
:100650005432300A004D416E65206C6F6F700A0095
:1006600048554D49444954593D0054454D503D006D
:010670000089
:10067200AAC038F0396A3A6A0001A935383601E36E
:1006820039803850B06FADC038F0396A3A6AAC354B
:10069200383601E339803850AF6FB051D8B40BD03F
:1006A200AF51B05DD8B00ED0B0510008AF25386E52
:1006B200180E386407D0ABC0A8F0ACC0A9F0ADC02A
:1006C200AAF01200AF51D8B40BD0B051AF5DD8B080
:1006D2000ED0AF510008B025386E180E386407D01E
:1006E200A8C0A8F0A9C0A9F0AAC0AAF01200060EDC
:1006F200AE6FAABFAE8FADBFAE8DA98FFF0EA8178A
:10070200FF0EA917000EAA17AC8FFF0EAB17FF0E34
:10071200AC17000EAD17AF51B05DD8B01BD0D8905A
:10072200AB37AC37AD37AF07B051AF19D8B40DD036
:10073200AE07AEC038F0070E3816D8B406D0EFD7E1
:10074200D890AA33A933A833B02BAF51B019D8B47B
:100752001FD0F6D7B051AF5DD8B01AD0D890A83715
:10076200A937AA37B007B051AF19D8B40DD0AE0728
:10077200AEC038F0070E3816D8B406D0EFD7D890EE
:10078200AD33AC33AB33AF2BAF51B019D8A4F7D7DD
:10079200AEAF0CD0FF0EA81BFF0EA91BFF0EAA1BAB
:1007A200010EA827000EA923000EAA23AEAD0CD07D
:1007B200FF0EAB1BFF0EAC1BFF0EAD1B010EAB27DA
:1007C200000EAC23000EAD23000EAE6FA851AB2776
:1007D200A951AC23AA51AD23ADAF0ED0FF0EAB1B76
:1007E200FF0EAC1BFF0EAD1B010EAB27000EAC23A0
:1007F200000EAD23010EAE6FABC013F0ACC014F00F
:10080200ADC015F0B0C016F0AEC017F0CEEC06F0D9
:1008120013C0A8F014C0A9F015C0AAF01200AC0EC3
:100822003C6E330E3D6E000E3E6E030E5EEC09F022
:1008320032EC0AF03B6E3BBEFBD7060E40EC09F0F1
:100842003D500001B36FB46BB56BB66BB5C0B6F07B
:10085200B4C0B5F0B3C0B4F0B36B3E50B313040EE2
:10086200D890B337B437B537B637E82EF9D73FC08B
:100872003BF03B3A0F0E3B163B50B313B3C013F0A1
:10088200B4C014F0B5C015F0B6C016F0640E176E01
:10089200000E186E000E196E000E1A6E75EC08F03E
:1008A20013C01FF014C020F015C021F016C022F0B2
:1008B20001EC08F01FC029F020C02AF021C02BF063
:1008C200000E2C6E800E2D6E490E2E6E5BEC06F025
:1008D200B1C0D9FFB2C0DAFF29C0DEFF2AC0DEFFF5
:1008E2002BC0DEFF3FC03BF00F0E3B163B5000011A
:1008F200B36FB46BB56BB66BB5C0B6F0B4C0B5F040
:10090200B3C0B4F0B36B4050B313B5C0B6F0B4C0CB
:10091200B5F0B3C0B4F0B36B4150B313000E2C6EFC
:10092200800E2D6E490E2E6EB3C013F0B4C014F0BB
:10093200B5C015F0B6C016F0C80E176E000E186ED0
:10094200000E196E000E1A6E75EC08F013C01FF03F
:1009520014C020F015C021F016C022F001EC08F0FE
:100962001FC029F020C02AF021C02BF05BEC06F05A
:1009720029C0A8F02AC0A9F02BC0AAF0000E0001DD
:10098200AB6F480EAC6FC20EAD6F39EC03F00001D5
:1009920020EE03F0B151D926B251DA22A8C0DEFF0F
:1009A200A9C0DEFFAAC0DEFF1200070EC16E240E30
:1009B200AC6E800EAB6E030EAF6E7F0ECA6E9D8262
:1009C200CB68C00E946E000E956E3F0E8B6E8C68D7
:1009D200290E146E060E156EBDEC09F01FEC0AF01E
:1009E200899A8998928A9288450E146E060E156E1F
:1009F200BDEC09F01FEC0AF0A20E216E000E226E71
:100A0200D2EC09F0F28EF28C550E146E060E156EB3
:100A1200BDEC09F01FEC0AF004007AEC09F00F0EAD
:100A22004C64FAD7000E4C6EA20E0001B16F000E9C
:100A3200B26F10EC04F06A0E146E060E156EBDEC69
:100A420009F0A5C0B1F0A6C0B2F0A7C0B3F0DFECC8
:100A520005F0B1C0C0F0B2C0C1F07BEC07F0600E8F
:100A6200146E060E156EBDEC09F0000E0001AB6FA0
:100A7200000EAC6F3F0EAD6FA2C0A8F0A3C0A9F0EC
:100A8200A4C0AAF039EC03F0A8C0B1F0A9C0B2F03A
:100A9200AAC0B3F0DFEC05F0B1C0C0F0B2C0C1F043
:100AA2007BEC07F0530E146E060E156EBDEC09F0CA
:100AB2005CEC05F0B1D7000E0001AB6F000EAC6F1D
:100AC2003F0EAD6FA2C0A8F0A3C0A9F0A4C0AAF0C7
:100AD20039EC03F0A8C0B1F0A9C0B2F0AAC0B3F0DB
:100AE200DFEC05F00001B1513B6E000EA16F000E6C
:100AF200A06F3BC013F0146A000E166E0A0E156E3C
:100B0200BFEC07F0D89013361436150E1324F66E88
:100B1200060E1420F76E0800F5500001A1133BC029
:100B220013F0146A000E166E0A0E156EBFEC07F073
:100B3200D89013361436010E1326000E1422150E09
:100B42001324F66E060E1420F76E0800F55000010D
:100B5200A0133BC013F0146A000E166E0A0E156E37
:100B62003DEC08F0D89013361436010E1324F66EBD
:100B7200060E1420F76E0800F5500001A1133BC0C9
:100B820013F0146A000E166E0A0E156E3DEC08F094
:100B9200D89013361436010E1326000E1422010EBD
:100BA2001324F66E060E1420F76E0800F5500001AD
:100BB200A013A1C08BFFA0C08CFF1200B3C0B5F080
:100BC2000001B66BB76BB235B53701E3B681B551EB
:100BD200BF6FBF51D8A409D0000EB16F000EB26F23
:100BE200000EB36F000EB46F1200170EB56FB1C0D6
:100BF200B6F0B2C0B7F0B3C0B8F0B529B96F04D03F
:100C0200D890B833B733B633B92FFAD70001B651FB
:100C1200BA6FB28FFF0EB117FF0EB217000EB317E5
:100C2200B151BB6FB251BC6FB351BD6FBE6B8E0E73
:100C3200BF5FBFAF16D0BF51800A8F0FD8B009D0A7
:100C4200000EB16F000EB26F000EB36F000EB46FE4
:100C52001200D890BE33BD33BC33BB33BF3FF9D78C
:100C620015D0170EBF650FD0000EB16F000EB26F18
:100C7200000EB36F000EB46F1200D890BB37BC37B2
:100C8200BD37BE37BF07BF51D8A4F7D7BA51D8B4C2
:100C920008D0BE1FBD1FBC1FBB6D000EBC23BD23F1
:100CA200BE23BBC0B1F0BCC0B2F0BDC0B3F0BEC089
:100CB200B4F012002BC02FF0306A316A2A342F367A
:100CC20001E330802F50366E3650D8A407D0000E84
:100CD200296E000E2A6E000E2B6E12002EC02FF00F
:100CE200306A316A2D342F3601E330802F50376E4F
:100CF2003750D8A407D0000E296E000E2A6E000EBF
:100D02002B6E1200000E336E000E346E000E356E26
:100D12003750890F365E2BC037F02E50371A800EAF
:100D220037162A8EFF0E2916FF0E2A16000E2B16D4
:100D32002D8EFF0E2C16FF0E2D16000E2E16180EDF
:100D4200326ED8903336343635362C50295C2D50DD
:100D52002A582E502B58D8A007D02C50295E2D503F
:100D62002A5A2E502B5A3380D89029362A362B36BF
:100D7200322EE7D733C013F034C014F035C015F06B
:100D820036C016F037C017F0CEEC06F013C029F0CB
:100D920014C02AF015C02BF012001650D8B405D09A
:100DA200135014101510D8A40CD0000E136E000EA0
:100DB200146E000E156E1200162AD89015321432D7
:100DC2001332000E1314186E000E1414196EFE0E58
:100DD20015141A6E185019101A10D8B40CD0ECD77A
:100DE200162A010E1326000E1422000E1522D89088
:100DF200153214321332000E1314186E000E14142E
:100E0200196EFF0E15141A6E185019101A10D8B454
:100E120006D0E6D71606D89013361436153614BE09
:100E220003D0020E1660F6D716A0149ED890163282
:100E3200165015121750D8A4158E13C013F014C0F3
:100E420014F015C015F012001C6E000E1E6E4DD06F
:100E5200000E1B6E010EE6EC09F0000E1D6E070E71
:100E62001D6401D012D0D8901B36010EF7EC09F0A8
:100E72002CEC0AF00009D8B4FBD726EC0AF01B12BE
:100E8200000EF7EC09F01D2AEAD71E50010D3C0EA8
:100E9200F324D96E000EF420DA6E1BC0DFFFFF0EC2
:100EA200146EFF0E156E1C50166E176A145016261D
:100EB200155017221E50186E196A1650185C1950D8
:100EC200800A1A6E1750800A1A58D8A004D0010E50
:100ED200E6EC09F003D0000EE6EC09F0010EF7ECA7
:100EE20009F0000EF7EC09F01E2A1C501E5CD8B067
:100EF2001200AED7C0C046F0C1C047F0000E456E2A
:100F0200000E446E960E1B6E800E1A6EA0EC08F058
:100F1200420E1B6E400E1A6EA0EC08F0860E1B6E7F
:100F2200A00E1A6EA0EC08F0270E1B6E100E1A6EA1
:100F3200A0EC08F0030E1B6EE80E1A6EA0EC08F08F
:100F4200000E1B6E640E1A6EA0EC08F0000E1B6EF3
:100F52000A0E1A6EA0EC08F046C013F047C014F057
:100F6200000E166E0A0E156E1FEC09F01350300FAC
:100F720092EC09F0200E92EC09F01200000E186EAD
:100F820016AE06D0156C161ED8B0162A010E186EB3
:100F920014AE06D0136C141ED8B0142A010E181AFF
:100FA200000E1A6E000E196E15501610D8B41CD011
:100FB200010E176E04D0D89015361636172A16AEC3
:100FC200FAD7D89019361A361550135C16501458A1
:100FD200D8A005D01550135E1650145A1980D89017
:100FE20016321532172EEDD71850D8B404D0196C1A
:100FF2001A1ED8B01A2A19C013F01AC014F012001F
:10100200000E286E8E0E276E22AE11D0221E211ED9
:10101200201E1F6C000E202221222222010E286E89
:1010220006D0D8902232213220321F32272A000ED7
:101032001F14236E000E2014246E000E2114256E40
:10104200FF0E2214266E2350241025102610D8A439
:10105200E8D71FC013F020C014F021C015F027C03C
:1010620016F028C017F0CEEC06F013C01FF014C023
:1010720020F015C021F01200000E186E14AE06D03A
:10108200136C141ED8B0142A010E186E16AE04D0BA
:10109200156C161ED8B0162A15501610D8B418D0D2
:1010A200010E176E04D0D89015361636172A16AED2
:1010B200FAD71550135C16501458D8A004D0155006
:1010C200135E1650145AD89016321532172EF1D7D5
:1010D2001850D8B404D0136C141ED8B0142A13C0FC
:1010E20013F014C014F01200000E1B6E000E1C6EE2
:1010F200000E1D6E000E1E6E13A008D017501B2688
:1011020018501C2219501D221A501E22D890173630
:10111200183619361A36D89016321532143213325E
:101122001350141015101610D8A4E6D71BC013F0D4
:101132001CC014F01DC015F01EC016F012001A508B
:10114200465C1B504758D8B004D044504510D8B420
:101152001200000E456E010E446E46C013F047C0E9
:1011620014F01AC015F01BC016F0F6EC08F013507C
:10117200300F92EC09F046C013F047C014F01AC0C9
:1011820015F01BC016F01FEC09F013C046F014C096
:1011920047F01200156E000E166E000E166E070E48
:1011A200166401D013D015AE04D0010EE6EC09F09E
:1011B20003D0000EE6EC09F0010EF7EC09F0000E88
:1011C200F7EC09F0D8901536162AE9D7010EF7EC9C
:1011D20009F02CEC0AF00009D8B4FBD726EC0AF08F
:1011E200146E000EF7EC09F01200000E186E000EDD
:1011F200176E15501610D8B41CD0010E196E04D0FB
:10120200D89015361636192A16AEFAD7D890173650
:1012120018361550135C16501458D8A005D0155026
:10122200135E1650145A1780D89016321532192EA2
:10123200EDD717C013F018C014F012001550161095
:10124200D8B418D0010E176E04D0D89015361636C1
:10125200172A16AEFAD71550135C16501458D8A098
:1012620004D01550135E1650145AD8901632153207
:10127200172EF1D713C013F014C014F012001F6E12
:10128200000E206E0BD02050010D3C0EF324D96EBF
:10129200000EF420DA6EFF0EDF6E202A1F50205C53
:1012A200D8A0F1D708EC0AF0710ECBEC08F01F5071
:1012B20025EC07F015EC0AF01200176E08EC0AF0A4
:1012C200700ECBEC08F0000E186E0CD01850010D09
:1012D2003C0EF324D96E000EF420DA6EDF50CBEC14
:1012E20008F0182A1750185CD8A0F0D715EC0AF0AD
:1012F20012004A50D8B412009EA812009E9848507C
:10130200010D600EF324D96E000EF420DA6EDF5068
:10131200AD6E482A4A063F0E48641200000E486E1F
:101322001200136E400E4A6012004950010D600E09
:10133200F324D96E000EF420DA6E13C0DFFF492ABF
:101342004A2A3F0E49641200000E496E120000EE56
:1013520060F0480EEE6AE806FDE100EE3CF0110E88
:10136200EE6AE806FDE14D904D92000EF86E060E13
:10137200F76E0001D6EF04F00AD014C0F6FF15C0D4
:10138200F7FF0800F55092EC09F0144A152A14C030
:10139200F6FF15C0F7FF0800F5500009D8B4120097
:1013A200ECD7BA0E3C6E010E5EEC09F0E10E3C6E1B
:1013B200080E3D6E000E3E6E030E5EEC09F032EC3E
:1013C2000AF0236E23AE1200FAD7136E13A002D0D6
:1013D200928801D0929800F000F000F000F000F046
:1013E20000F000F000F000F000F01200136E13A005
:1013F20002D0928A01D0929A00F000F000F000F040
:1014020000F000F000F000F000F000F01200010E19
:10141200F7EC09F0010EE6EC09F0000EE6EC09F03B
:10142200000EF7EC09F01200000EE6EC09F0010ED6
:10143200F7EC09F0010EE6EC09F0120002D07AECAA
:1014420009F04A50D8B41200FAD780A802D0010E8F
:101452001200000E120080AA02D0010E1200000E2D
:0C1462001200010E40EC09F03C5012009A
:020000040020DA
:08000000FFFFFFFFFFFFFFFF00
:020000040030CA
:04000000FF220E0FBE
:0800060081FF0FC00FE00F4065
:00000001FF
