:040000000CEF1FF0F2
:103E1800DE0EF66E3E0EF76E000EF86E00EE60F0E7
:103E280010EE6CF00900F5CFEEFFE550E150FAE135
:103E380000EE01F0120EEE6AE806FDE1000EF86EE3
:103E4800000145EF1FF004008B96000E166E0F0E52
:103E5800166401D014D014AE03D0156A152A01D007
:103E6800156A153215328B5015187F0B15188B6E85
:103E7800D890133614368B8C8B9C162AE8D78B86F1
:103E88001200800ED36E8B949494000E106E000E68
:103E98000F6E000E126E000E096E000E0A6E000EF6
:103EA8000B6E000E0C6E000E016E000E026E000E00
:103EB800036E000E046E18681768000E7E6E000E02
:103EC8007F6E880ED56EE00ED76E000ED66EA5EC0E
:103ED8001FF00400FED738FF6CF16AFF3EED9CFF2F
:103EE80030E8CEFF2EE200002DDB32002AD364003A
:103EF80030CA960051C0C800B3B5FA0080AA2C0198
:103F0800E99E5E01299390017487C201FC7BF4014C
:103F1800EF70260270665802945C8A026F53BC02E6
:103F2800024BEE02564320035F3C520316368403CD
:103F38007630B603672BE803F0261A04EE224C0409
:103F48005E1F8B8694968B9E949E8B9C949CCA0E27
:103F5800146E810E136E27EC1FF0CA0E146E830EBA
:103F6800136E27EC1FF0800E146E330E136E27ECC1
:103F78001FF0C40E146ED70E136E27EC1FF0AF0E91
:103F8800146E3F0E136E27EC1FF0C60E146E030E50
:103F9800136E27EC1FF0820E146E010E136E27ECC1
:103FA8001FF0940E146E200E136E27EC1FF0980E5F
:103FB800146EF00E136E27EC1FF0C20E146E3C0E3A
:103FC800136E27EC1FF0820E146E210E136E27EC71
:103FD8001FF08B84F294FF0ED76EAF0ED66E01D011
:103FE8000400F2A4FDD7F2948B94820E146E810E15
:083FF800136E27EC1FF012000C
:020000040020DA
:08000000FFFFFFFFFFFFFFFF00
:020000040030CA
:0E0000000028171FFF8081FF03C003E00340AC
:00000001FF
